:020000040800F2
:1000000040070020A9010008B1010008B301000861
:10001000B5010008B7010008B901000800000000A0
:10002000000000000000000000000000BB0100080C
:10003000BD01000800000000BF010008270B0008F8
:10004000C3010008C3010008C3010008C301000880
:10005000C3010008C30100088B110008C301000898
:10006000C3010008C3010008C3010008C301000860
:10007000C3010008C3010008C3010008C301000850
:10008000C3010008C3010008C3010008C301000840
:10009000C3010008C3010008C3010008C301000830
:1000A000C3010008C3010008C3010008C301000820
:1000B000C3010008C3010008C3010008C301000810
:1000C000C3010008C3010008C3010008C301000800
:1000D000C3010008EB070008C3010008C3010008C2
:1000E000C3010008C3010008C301000800F002F8C2
:1000F00000F04BF80AA090E8000C82448344AAF177
:100100000107DA4501D100F040F8AFF2090EBAE874
:100110000F0013F0010F18BFFB1A43F0010318473B
:100120003830000058300000103A24BF78C878C139
:10013000FAD8520724BF30C830C144BF04680C60ED
:10014000704700000023002400250026103A28BF35
:1001500078C1FBD8520728BF30C148BF0B60704739
:10016000642902F0CD84782902F0068500207047CA
:100170001FB502F097FF04000020002102F0B8FF35
:10018000401C60601FBD10B510BD02F066FF114637
:10019000FFF7EEFF01F084FA02F096FF03B4FFF7D9
:1001A000F2FF03BC02F096FF094880470948004768
:1001B000FEE7FEE7FEE7FEE7FEE7FEE7FEE7FEE717
:1001C000FEE7FEE704480549054A064B7047000074
:1001D000A1020008ED0000084001002040070020B7
:1001E00040030020400300200CB500200190009047
:1001F0006048006840F480305E49086000BF5D4898
:10020000006800F4003000900198401C01900098B4
:1002100018B90198B0F5A06FF1D15648006810F4F4
:10022000003F02D00120009001E0002000900098E3
:10023000012830D14F4840684E4948600846406820
:1002400048600846406848600846406820F47C10D2
:1002500048600846406840F49810486008460068C6
:1002600040F08070086000BF4248006810F0007FD6
:10027000FAD04048406820F003003E4948600846F4
:10028000406840F00200486000BF3A48406800F013
:100290000C000828F9D10CBD10B5FFF7A5FF10BD63
:1002A00010B53448006840F0010032490860084643
:1002B0004068314908402F494860084600682F4986
:1002C00008402C4908600846006820F48020086037
:1002D0000846406820F4FE0048604FF41F00886024
:1002E0000020C862FFF7D8FF10BD30B50021002004
:1002F000002200231F4C646804F00C0121B1042982
:1003000006D0082925D107E01D4C1E4D2C6024E0A5
:100310001B4C1C4D2C6020E0164C646804F47010DB
:10032000144C646804F48032022404EB904022B937
:10033000154C4443134D2C600AE00E4CE46A04F063
:100340000F04631C0E4CB4FBF3F444430D4D2C60BE
:1003500003E00B4C0B4D2C6000BF00BF054C6468E4
:10036000C4F30314094D295D064C2468CC40054DA7
:100370002C6030BD001002400000FFF8FFFFF6FEC9
:1003800000127A000000002000093D000400002057
:10039000E448006840F00100E2490860084640680F
:1003A000E1490840DF49486008460068DF490840E5
:1003B000DC4908600846006820F480200860084690
:1003C000406820F4FE0048604FF41F008860002061
:1003D000C8627047D349096821F48031D14A11605D
:1003E0001146096821F480211160B0F5803F03D0E7
:1003F000B0F5802F0ED106E0CA49096841F480317A
:10040000C84A116007E0C749096841F4A021C54AFC
:10041000116000E000BF00BF704710B50146002228
:10042000002300204A11012A02D1BE4C236806E0B5
:10043000022A02D1BB4C236A01E0BA4C636A01F084
:100440001F02012494401C4201D0012000E0002042
:1004500010BD38B5002000900024002500BF3120D9
:10046000FFF7DBFF05460098401C00900098B0F5B0
:10047000A06F01D0002DF2D03120FFF7CEFF08B1E0
:10048000012400E00024204638BD01460020A54A92
:10049000106820F0F80040EAC10010607047A449DD
:1004A00008607047024600209E4B586820F4741084
:1004B00042EA010318439B4B586070479C49086609
:1004C000704702460020974BD86A9A4B184042EA80
:1004D00001031843934BD862704701460020914AAC
:1004E000506820F003000843506070478D48406812
:1004F00000F00C007047014600208A4A506820F046
:10050000F00008435060704701460020854A50685B
:1005100020F4E06008435060704701460020814AA3
:10052000506820F4605040EAC1005060704729B123
:100530007C4A527A02437B4B5A7204E0794A527ADF
:100540008243784B5A7270477B4908607047014676
:100550000020744A506820F44040084350607047BF
:100560000021764A11706F4A82F82010012802D0CB
:10057000042808D103E00121704A117004E005212C
:100580006E4A117000E000BF00BF70476C49086000
:1005900070476449096A0143624A116270476849B9
:1005A00044390860704770B5002100230024002200
:1005B00000255C4E766806F00C0121B1042905D0B7
:1005C000082921D105E05F4E066020E05D4E0660FF
:1005D0001DE0544E766806F47013524E766806F4A9
:1005E0008034022606EB93431CB9574E5E430660E7
:1005F00009E04C4EF66A06F00F06751C514EB6FB2C
:10060000F5F65E43066002E04E4E066000BF00BF96
:10061000444E766806F0F00109094C4E725C06689B
:10062000D64046603F4E766806F4E061090A474EC0
:10063000725C4668D64086603A4E766806F4605131
:10064000C90A424E725C4668D640C660354E76682E
:1006500006F44041890B3E4E725CC668B6FBF2F66A
:10066000066170BD29B12F4A526902432D4B5A6170
:1006700004E02C4A526982432A4B5A61704729B1DF
:10068000284A92690243274B9A6104E0254A9269FD
:100690008243244B9A61704729B1224AD2690243AE
:1006A000204BDA6104E01F4AD26982431D4BDA61B4
:1006B000704729B11B4AD26802431A4BDA6004E042
:1006C000184AD2688243174BDA60704729B1154A3D
:1006D00012690243134B1A6104E0124A1269824301
:1006E000104B1A617047164940390860704710492D
:1006F000C86470470B49C87170470A48406A40F0A7
:10070000807008494862704701460020054A926897
:100710000A4201D0012000E00020704701498872A0
:1007200070470000001002400000FFF8FFFFF6FED7
:1007300000004242F0FFFEFFD8004242201002407B
:100740008004424200127A0000093D00140000209B
:1007500024000020052800D27047001F1721FB4A03
:100760001180121D1080F9491439098841F00101E6
:10077000F64A143A1180F5492839098841F00901EF
:10078000F24A283A118000BFF0492839098811F04F
:10079000010FF9D100BFDFE710B5034643B10024D4
:1007A00004E04FF47A70FFF7D5FF641C9C42F8D345
:1007B00010BD70B5064600BFE548008810F0400F38
:1007C000FAD0304602F0D5FA054600240AE000BF10
:1007D000DF48008810F0400FFAD0305DDC49091D79
:1007E0000880641CAC42F2DB70BD38B540F2255184
:1007F000D74801F061FE002832D0D54801F0DCFD79
:10080000C4B2D448007820B18DF8004000208DF8A3
:1008100001000D2C0BD10020CF49D04A127888540A
:100820000120CF4908700020CC49087013E0CB4864
:1008300000783F280FDAC9490878411CC74A11706F
:10084000C5490C54002012788854C248007810B171
:100850006846FFF7AEFF40F22551BD4801F056FE55
:1008600038BD70B50546182D00DD18254FF48051B0
:10087000BC4801F0C2FB0220FFF76CFF002418E027
:10088000B948015DB94801F0C5FF00BF8021B748F4
:1008900002F013F80128F9D000BF0121B34802F09B
:1008A0000CF80128F9D1B14801F0B6FFB04908555C
:1008B000641CAC42E4DB0220FFF74CFF4FF4805194
:1008C000A84801F098FB0A20FFF744FF70BD10B55F
:1008D0000220A54908702B20487041208870032011
:1008E000FFF7BFFF0220A0490870602048708870A1
:1008F0000320FFF7B6FF02209B4908707020487064
:10090000602088700320FFF7ACFF02209649087032
:100910000C204870302088700320FFF7A2FF0220CF
:100920009149087062204870082088700320FFF702
:1009300098FF9048008807287ED2DFE800F0042363
:10094000426182A1C1000220874908702A204870B4
:10095000802088700320FFF784FF022082490870FE
:1009600029204870912088700320FFF77AFF022029
:100970007D49087028204870012088700320FFF707
:1009800070FFBCE00220784908702A20487080205F
:1009900088700320FFF765FF022073490870292043
:1009A0004870B52088700320FFF75BFF02206E4976
:1009B000087028204870012088700320FFF751FF3D
:1009C0009DE00220684908702A20487081208870C4
:1009D0000320FFF746FF0220634908702920487072
:1009E000B52088700320FFF73CFF02205E490870A5
:1009F00028204870012088700320FFF732FF7EE036
:100A00000220594908702A204870812088700320EC
:100A1000FFF727FF02205449087029204870BF20A3
:100A200088700320FFF71DFF02204F49087028201F
:100A300048700220887000E041E00320FFF711FFBA
:100A40005DE00220484908702A20487084208870A0
:100A50000320FFF706FF0220434908702920487051
:100A6000B52088700320FFF7FCFE02203E49087085
:100A700028204870012088700320FFF7F2FE3EE036
:100A80000220394908702A20487089208870032084
:100A9000FFF7E7FE02203449087029204870BF2084
:100AA00088700320FFF7DDFE02202F490870282000
:100AB0004870022088700320FFF7D3FE1FE000BFBC
:100AC0000220294908702A20487098208870032045
:100AD000FFF7C7FE02202449087029204870B5207E
:100AE00088700320FFF7BDFE02201F4908702820F0
:100AF0004870012088700320FFF7B3FE00BF00BFDD
:100B00000220194908700F204870082088700320BF
:100B1000FFF7A7FE10BD10B5C020134908700120D3
:100B2000FFF79FFE10BD10B51348006868B1134869
:100B3000006838BB10480068401E0F4908604FF439
:100B400080710F4801F059FA28E022E0280800409F
:100B500000380140370000205C00002034000020F5
:100B600035000020000C0140AC000020003800409F
:100B7000C4000020320000203C0000204000002083
:100B800000080140FFE7F7480068401EF54908608B
:100B900004E04FF48071F44801F02DFAF348006846
:100BA000401CF2490860F2480068401CF0490860A7
:100BB00008460068B0F5FA7F09D9FFF7ACFF64205A
:100BC000FFF7C8FDFFF783FE0020E9490860E94907
:100BD0000868411CE74A11600A2804D90020114620
:100BE000086001F0AAFE10BD30B587B0FFF7D0FB5A
:100BF0000020FFF7EFFB0120FFF751FC4FF48011BD
:100C00000020FFF74FFC0220FFF767FC0020FFF7F2
:100C100072FC0020FFF778FC0020FFF77EFC01202B
:100C2000FFF74CFC01210420FFF729FD01210820DA
:100C3000FFF725FD01210420FFF72EFD0121880388
:100C4000FFF71DFD4FF48070ADF8180010208DF8EF
:100C50001B0002208DF81A0006A9C34801F020F9F4
:100C60004FF48071C04801F0C6F90120ADF81800BA
:100C700004208DF81B0002208DF81A0006A9BA483E
:100C800001F00EF902208DF81A0006A9B64801F00D
:100C900007F906A801F08DF918208DF81B004FF414
:100CA0000070ADF8180002208DF81A0006A9AE48B1
:100CB00001F0F6F804208DF81B000002ADF81800D2
:100CC00002208DF81A0006A9A74801F0E9F802A849
:100CD00001F0DEFA4FF4612002900020ADF80C0024
:100CE000ADF80E00ADF81000ADF8140002A9A2484E
:100CF00001F065FA0121A04801F0EDFA25208DF8F8
:100D0000040001208DF8070001A801F01EFC01215C
:100D1000994801F0E0FA252000F01F0201219140DE
:100D200042094FF0E02303EB8202C2F8001100BF3A
:100D3000012240F22551904801F0D9FA8F49B1F1D2
:100D4000807F00D31DE021F07F40401E4FF0E02265
:100D5000506150170F22002807DA13071D0E884B29
:100D600000F00F04241F1D5503E013071C0E854BD4
:100D70001C5400BF00204FF0E0229061072010615A
:100D800000BF45F2555001F0CFFD032001F0CFFD2B
:100D90004FF49C7001F0CEFD01F0CFFD01F0D2FDCB
:100DA00000207949087079490860704908607149E4
:100DB000086042F210706E490860002074490870A3
:100DC000744908707449087001207449087007B0AC
:100DD00030BD00B587B001218803FFF75DFC4FF4FB
:100DE0008050ADF8180010208DF81B0002208DF8FF
:100DF0001A0006A96A4801F053F84FF48051684878
:100E000001F0F9F84FF42040ADF8180018208DF8E3
:100E10001B0002208DF81A0006A9614801F040F875
:100E20004FF48040ADF8180004208DF81B0002201C
:100E30008DF81A0006A95A4801F032F801A801F00D
:100E4000A2FC0020ADF80400ADF80800ADF80A00DF
:100E5000ADF80C004FF40070ADF80E002020ADF896
:100E600010000020ADF812004FF48270ADF80600BB
:100E700001A94C4801F0F8FB01214A4801F099FC16
:100E800007B000BD0EB50021084601F01DF9012094
:100E9000019000208DF808000C208DF80900012039
:100EA0008DF80A0001A801F06DFD06208DF8000004
:100EB0000D208DF8010000208DF8020001208DF832
:100EC0000300684601F041FB0EBD2DE9F047A2B0DA
:100ED0004FF000090320344908702C20487000208E
:100EE00088700320FFF7BDFC304890F802A01AF08C
:100EF000010F7DD000201E490860022403E000207D
:100F000029490855641C182CF9D303202649087078
:100F1000612048700620FFF7A4FC2448807824490B
:100F200008702248C07848702048007988701F48AF
:100F30004079C870084640780028DAD000BF0846DB
:100F40000078450108464078C61006F0FC000543CD
:100F50000846407800F0030005432F1205F0FF0813
:100F600001242BE040000020000801404400002044
:100F70004C000020480000200038014080A90300F8
:100F800018ED00E000E400E0340000203C00002008
:100F900035000020360000203700002038000020F7
:100FA000000C014000380040AC000020C4000020CC
:100FB000500000200020F9490855641C182CF9D372
:100FC0009220F64908700920FFF74BFC002405E049
:100FD000F349601C085CF3490855641C082CF7D3DE
:100FE000F1480078F0B1F148007870B1F04800E0C5
:100FF00064E0C078EE49897843463A46CDE900106E
:10100000ECA102A801F03EFD28E0E948C078E849DB
:10101000897843463A46CDE90010EDA102A801F0D7
:1010200031FD1BE0E148007860B1E148C078E0495B
:10103000897843463A46CDE90010ECA102A801F0B8
:1010400021FD0BE0DA48C078D949897843463A4611
:10105000CDE90010EAA102A801F014FD02A8FFF7F3
:10106000A8FB012413E0D148007830B1CC48025DE0
:10107000E8A102A801F006FD05E0C948025DE7A16C
:1010800002A801F0FFFC02A8FFF793FB641C092CE7
:10109000E9D3C548007830B1E2A0FFF78AFBE44805
:1010A000FFF787FB02E0E3A0FFF783FBE24800685D
:1010B00020B90220E0490860E0490860484622B0B3
:1010C000BDE8F0872DE9F0410027062403E0002069
:1010D000B2490855641C182CF9DB0220AF4908708E
:1010E00031204870B24800788870B1484078C870A4
:1010F000AF4880780871AE48C07848710820887180
:10110000002405E0A748015DA44AE01D1154641CB9
:10111000082CF7DB0F20FFF7A4FB81209F49087004
:101120000120FFF79EFBC64806680024002522E048
:101130000A20FFF70FFB0320984908702C20487005
:10114000002088700320FFF78CFB9548807810F012
:10115000040F01D001240BE091488078012807D1C9
:10116000FFF7D9FC6420FFF7F5FAFFF7B0FB012485
:10117000B3480068851B022D01D2002CD8D0012D68
:1011800000D901273846BDE8F08110B5FFF79DFE74
:101190000520824908702C204870FF2088700020AC
:1011A000C8700420FFF75DFB012001F051FC10B175
:1011B000012001F05EFC10BDA248A3494860A3488D
:1011C000486000BFA048C06810F0010FFAD19E48E7
:1011D000006940F002009C4908619D48486108464A
:1011E000006940F04000086100BF9748C06810F0F7
:1011F000010FFAD19448006920F002009249086179
:101200000846006940F00100086100BF8E48C068D0
:1012100010F0010FFAD18F4800888D490A310880FB
:1012200000BF8948C06810F0010FFAD186480069F4
:1012300020F00100844908610846006940F0800000
:101240000861704782480068834908608048001D33
:101250000068824908607E4808300088804908801C
:101260007B480A3000887B49088070472DE9F041AF
:1012700094B07CA0FFF79DFA01207E4908707EA102
:10128000804801F052FD7F48FFF793FA4FF00408C1
:10129000F2E17D4800780028FAD000207A490870F1
:1012A0000027634801F065FD0646002E73D0002438
:1012B0000CE05F4801F05DFD0646002404E05C4957
:1012C000601C085C0855641CB442F8DB5848007880
:1012D0002028EED0564801F04CFD461E002E0BDDB6
:1012E00006E0002E04DB00205149885506B1761E29
:1012F0004F48805D2028F4D04D4801F03AFD064665
:1013000000252AE04A48405D202803DB4848405D2C
:101310007E2805DD4648405D10B1242044494855EB
:101320004348405D602804DD4148405D2038404925
:10133000485508E02C4604E03D49601C085C08550F
:10134000641CB442F8DB3A48405D202804D1384997
:10135000681C085C2028EDD06D1CB542D2DB00244F
:1013600003E000204DF82400641C4445F9DB002410
:1013700000250AE02E48405D202805D1444503DAC7
:101380002046641C4DF820506D1CB542F2DB0098DD
:1013900010B100247FE06CE184E00000AC0000208C
:1013A000C400002054000020370000203800002036
:1013B000500000200D524543563A20253032582522
:1013C0003032582530325825303258230000000082
:1013D0000D524543563A2025303258253032582593
:1013E0003032582530325820230000002530325842
:1013F000253032582530325825303258230000002D
:101400002530325825303258253032582530325860
:101410002023000025303258000000002025303203
:10142000580000000A0D53454E443A2000000000C9
:101430005C0000200A0D00003C000020400000205D
:10144000440000202301674500200240AB89EFCD16
:1014500000FC000832000020280000202C000020A2
:10146000300000200A0D3F20666F722068656C70A6
:101470000A0D0000360000200A0D436F6E66696792
:101480003E2000009C00002035000020C248005D86
:1014900004A90855641C0098A042F7DC002004A9A8
:1014A000085503E0BC4904A801F03FFCBBA104A817
:1014B00001F07EFC68B9AFF29401B94801F035FC47
:1014C000B748FFF776F90020B649087014B0BDE8B8
:1014D000F081B5A104A801F06BFC002829D1AFF27E
:1014E000AC00FFF766F9B1A0FFF763F9B5A0FFF70D
:1014F00060F9BBA0FFF75DF9C0A0FFF75AF9C5A0DE
:10150000FFF757F9CDA0FFF754F9D6A0FFF751F92F
:10151000DEA0FFF74EF9E7A0FFF74BF9EFA0FFF7CA
:1015200048F9F8A0FFF745F9AFF2F800FFF741F9E5
:101530000127002F3DD1FDA104A801F039FC0028AE
:1015400037D1FB480088072816D2DFE800F00406F0
:10155000080A0C0F1200F74E10E0F74E0EE0F74E9F
:101560000CE0F74E0AE04CF2503607E044F62066F5
:1015700004E042F2107601E0002600BF00BFF1A0B7
:10158000FFF717F9F0A104A801F07CFA04A8FFF70F
:1015900010F9F2A104A801F075FA04A8FFF709F9FF
:1015A0003246F5A104A801F06DFA04A8FFF701F98D
:1015B0000127002F51D1F6A104A801F0F9FB002862
:1015C0004BD18DF810000098F0B3019888B1002538
:1015D0000098441C06E07048025D28466D1C04A972
:1015E0000A54641C0198A042F5DC002004A9485567
:1015F00013E0694801F0BDFB064600250098441C35
:1016000006E06548025D28466D1C04A90A54641C66
:10161000B442F6DB002004A948559DF81000D8B16B
:1016200004A801F075FB0546002D0EDB072D0CDA32
:10163000BF490D80FFF7C0FDFFF76DFA6420FFF78B
:1016400089F8FFF744F907E003E0D2A0FFF7B1F80B
:1016500002E0D5A0FFF7ADF8012737B9D7A0FFF713
:10166000A8F84F48FFF7A5F806E04D48FFF7A1F8A6
:1016700002E04B48FFF79DF84A48007800287FF4C5
:1016800008AE00BF22E7412806DBA0F14101C8B245
:1016900000F10A01C8B202E0A0F13001C8B27047FF
:1016A0000EB5FEF7FDFDFFF79FFAFFF7CBFDFFF745
:1016B00090FBFFF7E7FBFFF72EFA6420FFF74AF8ED
:1016C000FFF705F9AFF2A421354801F02EFB40F2F7
:1016D0002551BF4800F01AFF002406E0BDA0FFF727
:1016E00068F86420FFF758F8641C032CF6D3AFF2B7
:1016F000BC20FFF75EF8B848007810B12848FFF723
:1017000058F8A1E2B5480078002843D00020B3493A
:101710000870214801F02DFB064600240EE008E089
:10172000254604E01C49681C085C48556D1CB54200
:10173000F8D31948005D2028F2D0641CB442EED3DF
:101740000025154801F015FB0646002418E0124854
:10175000005D202803DB1048005D7E2806DD0E4872
:10176000005D18B124200C49085501250A48005D88
:10177000602804DD0848005D203807490855641CCE
:10178000B442E4D396A1044801F012FB18B9FFF764
:101790006DFD53E255E225E15C00002051000000A0
:1017A0009C000020360000203F0000000A0D3F2072
:1017B0002020202020202D2054686973207061672C
:1017C000650000000A0D71202020202020202D20FF
:1017D000457869742066726F6D20436C6900000063
:1017E0000A0D73682020202020202D2053686F7759
:1017F00020706172616D6574657273000A0D6373A8
:10180000203C4E6E3E202D2043414E207370656576
:10181000640000000A0D202020202020202020200D
:101820004E6E203D20303B2053706565642035307E
:101830003030303020627073000000000A0D20202C
:1018400020202020202020204E6E203D20313B20D3
:1018500053706565642032353030303020627073EB
:10186000000000000A0D2020202020202020202021
:101870004E6E203D20323B2053706565642031322E
:101880003530303020627073000000000A0D2020D7
:1018900020202020202020204E6E203D20333B2081
:1018A00053706565642031303030303020627073A1
:1018B000000000000A0D20202020202020202020D1
:1018C0004E6E203D20343B205370656564203530DA
:1018D0003030302020627073000000000A0D20209C
:1018E00020202020202020204E6E203D20353B202F
:1018F0005370656564203230303030202062707360
:10190000000000000A0D2020202020202020202080
:101910004E6E203D20363B2053706565642031308B
:101920003030302020627073000000005348000007
:101930003200002020A1070090D0030048E80100F9
:10194000A08601000D0A00004E616D652020202058
:101950002020202056616C75650D0A002D2D2D2D3F
:101960002D2D2D2D2D2D20202D2D2D2D2D2D2D2DC1
:101970002D2D0D0A0000000043414E205370656577
:10198000642020202564206270730D0A000000008E
:10199000435300000D0A4572726F722043414E207E
:1019A00073706565640D0A000D0A436F6D6D616E9D
:1019B00064206572726F720D0A0000000D0A556E88
:1019C0006B6E6F776E20636F6D6D616E640D0A00D4
:1019D000003801402B0000003700002035000020B7
:1019E0004346470099A19B4801F0E2F980B99A4823
:1019F000007830B100209849087098A0FEF7D9FE11
:101A00001CE101209449087098A0FEF7D2FE15E170
:101A100099A1904801F0CCF980B99948007830B18B
:101A200000209749087097A0FEF7C3FE06E1012049
:101A30009349087099A0FEF7BCFEFFE0854801F0CD
:101A400098F90646002E7DD00A2E39D9C5BB192E2D
:101A500000D9012506F0010ABAF1000F00D10125D5
:101A60007C48007A232801D005B9012579480078FF
:101A7000302804D077480078312800D00125FDB9FE
:101A800000240BE07348075D302F01DB392F04DDA4
:101A9000412F01DB462F00DD0125641C082CF1D30A
:101AA00009240BE06B48075D302F01DB392F04DD83
:101AB000412F01DB462F00DD0125641CB442F1D328
:101AC000002D7CD1A94600240CE06248075D384611
:101AD000FFF7D9FD82464FF6FF7000EA091949EA7F
:101AE0000A09641C042CF0D300200190042412E0A5
:101AF0005848075D3846FFF7C6FD8246BDF804002A
:101B00004FF6FF7101EA00100190BDF8040040EAB1
:101B10000A000190641C082CEAD34FF6E07000EA3A
:101B2000C900029009F00300BDF8081008430290B4
:101B3000BDF8080040F0080002900DF1080898F880
:101B4000010000E074E05A49087098F800004870FD
:101B50000DF1040898F80100887098F80000C8702A
:101B6000002403E0002053490855641C082CF9D3D5
:101B700000200090092419E03648075D3846FFF739
:101B800082FD83464FEA0B704FEA106B3149601CAF
:101B90000F5C3846FFF777FD40EA0B0B454900988C
:101BA00001F800B00098401C0090A41CB442E3D39C
:101BB000FFF788FA8246BAF1000F04D000E002E095
:101BC0003DA0FEF7F6FD234801F0D3F80B2800D224
:101BD0000125002D2CD0AFF29420FEF7EAFD3DA0A8
:101BE000FEF7E7FDAFF2A420FEF7E3FD40A0FEF70D
:101BF000E0FD43A0FEF7DDFD49A0FEF7DAFD4CA0B5
:101C0000FEF7D7FD4EA0FEF7D4FDAFF2C820FEF7D9
:101C1000D0FD53A0FEF7CDFD54A0FEF7CAFD5BA09A
:101C2000FEF7C7FD62A0FEF7C4FD57A0FEF7C1FD99
:101C30000948007810B16948FEF7BBFD002005494E
:101C400008700A20FEF7A8FD5CE500004543484FF8
:101C5000000000005C000020370000200D0A454312
:101C6000484F204F46460D0A000000000D0A45432C
:101C7000484F204F4E0D0A0053484F525400000069
:101C8000380000200D0A53484F52545F4F555450AE
:101C90005554204F46460D0A000000000D0A5348D7
:101CA0004F52545F4F5554505554204F4E0D0A001B
:101CB00050000020540000200A0D4572726F7220FF
:101CC00073656E64206461746120746F2043414EBB
:101CD000000000000D0A57726F6E672043414E2DC1
:101CE0006672616D6520666F726D61740000000040
:101CF0000D0A202020204578616D706C653A000047
:101D00000D0A202020204E5858585858585823580B
:101D1000585858585858585858585858585858009B
:101D20000D0A202020204E202D20302F31000000D1
:101D30000D0A2020202058202D20302E2E46000075
:101D40000D0A4F6E6C7920457874656E6465642069
:101D50006672616D6520666F726D617400000000CF
:101D60007072696E743A0D0A000000002020202075
:101D70002020202763666727202020666F7220635B
:101D80006F6E6669677572650D0A0000202020205D
:101D9000202020276563686F272020666F722065EA
:101DA00063686F206F6E2F6F66660D0A000000007B
:101DB000202020202020202773686F72742720663F
:101DC0006F722073686F7274206F757470757420F1
:101DD0006F6E2F6F66660D0A000000009C000020E9
:101DE00010B50446CA48844208D101210420FEF7F8
:101DF00060FC00210420FEF75CFC46E0C5488442FC
:101E000008D101210820FEF754FC00210820FEF72C
:101E100050FC3AE0C048844208D101211020FEF76E
:101E200048FC00211020FEF744FC2EE0BB48844211
:101E300008D101212020FEF73CFC00212020FEF7E4
:101E400038FC22E0B648844208D101214020FEF748
:101E500030FC00214020FEF72CFC16E0B148844203
:101E600008D101218020FEF724FC00218020FEF70C
:101E700020FC0AE0AC48844207D101218015FEF71E
:101E800018FC0021A015FEF714FC10BD10B50121AF
:101E90000846FEF70EFC00210120FEF70AFC10BDEB
:101EA0002DE9F041024600250026002000230024F1
:101EB000002791F803C00CF00F0591F803C01CF047
:101EC000100F03D091F802C04CEA050591F800C04C
:101ED000BCF1000F31D0146800202BE04FF0010C52
:101EE0000CFA00F3B1F800C00CEA03069E4220D1C0
:101EF00083004FF00F0C0CFA03F7BC4305FA03FC08
:101F00004CEA040491F803C0BCF1280F06D14FF04D
:101F1000010C0CFA00FCC2F814C00AE091F803C0EE
:101F2000BCF1480F05D14FF0010C0CFA00FCC2F8CF
:101F300010C0401C0828D1D31460B1F800C0BCF117
:101F4000FF0F34DD546800202EE000F1080C4FF044
:101F5000010808FA0CF3B1F800C00CEA03069E422F
:101F600021D183004FF00F0C0CFA03F7BC4305FAA4
:101F700003FC4CEA040491F803C0BCF1280F05D11E
:101F800000F1080C08FA0CF8C2F8148091F803C0AC
:101F9000BCF1480F07D100F1080C4FF0010808FA16
:101FA0000CF8C2F81080401C0828CED35460BDE85D
:101FB000F0814FF6FF710180022181700421C17010
:101FC00070470246002093680B4201D0012000E0D8
:101FD000002070470146886880B2704702460020A2
:101FE000D3680B4201D0012000E000207047014679
:101FF000C86880B2704701617047416170470AB19B
:10200000016100E041617047C16070474FF4803268
:102010000A438261816182618269826970470246F6
:102020000020424B18684FF68073184040EA0210B7
:1020300008433E4B186070473D49C8617047F0B592
:102040000A46002300240021002500F00046B6F1D6
:10205000004F02D1354EF16901E0344E7168C0F392
:10206000034583B200F44016B6F5401F08D121F0B5
:1020700070612E4E766826F070662C4F7E6012E0FE
:1020800000F48016B6F5801F06D1032606FA05F483
:10209000A14341F0706106E0460D360103FA06F6F1
:1020A000B14341F0706122B1460D360103FA06F6E4
:1020B000314300F00046B6F1004F02D11B4EF161F2
:1020C00001E01A4E7160F0BD30B500228B071C0F85
:1020D0000F2303FA04F2154B08338C1053F8243005
:1020E0009343124C08348D1044F8253023468C104D
:1020F00053F824308C07240F00FA04F423430B4CCC
:1021000008348D1044F8253030BD0A490860704706
:1021100000080140000C0140001001400014014083
:1021200000180140001C0140002001400000014057
:1021300000002042DC00204210B50446FB488442E7
:1021400009D101218803FEF7B4FA00214FF4804041
:10215000FEF7AFFA32E0F648844209D10121480483
:10216000FEF7B4FA00214FF40030FEF7AFFA25E095
:10217000F048844209D101218804FEF7A7FA002122
:102180004FF48020FEF7A2FA18E0EB48844209D110
:102190000121C804FEF79AFA00214FF40020FEF74F
:1021A00095FA0BE0E548844208D101210805FEF7C5
:1021B0008DFA00214FF48010FEF788FA10BD2DE94A
:1021C000F04786B005460E460024A24600BFA14651
:1021D0000027B08900B100BF2F462C8A4CF6FF7053
:1021E0000440F08804432C82AC894EF6F31004407E
:1021F000B08831890843718908430443AC81AC8AB3
:102200004FF6FF400440B0890443AC8201A8FEF7BA
:10221000CAF9C648874202D1DDF810A001E0DDF816
:102220000CA0A88910F4004F08D00AEBCA0000EBFC
:102230000A1031684900B0FBF1F807E00AEBCA0068
:1022400000EB0A1031688900B0FBF1F86420B8FB9C
:10225000F0F004012009642101FB1089A88910F421
:10226000004F08D0322000EBC900B0FBF1F000F0C5
:102270000700044308E0322000EB09106421B0FBA2
:10228000F1F000F00F0004432C8106B0BDE8F087A8
:102290004FF41651016000218180C18001810C2121
:1022A000418100218181704710B502460020108ACB
:1022B0004FF2FF0318400B884C8823438C8823433C
:1022C000CC8823431843108210BD00210180418037
:1022D0008180C180704721B1828942F4005282819D
:1022E00004E082894DF6FF731A4082817047F0B591
:1022F00003460024002600250020A1F510676A3F50
:1023000000D100BF1846C1F3421401F01F06012797
:1023100007FA06F5012C01D10C3004E0022C01D1A2
:10232000103000E014301AB107682F43076002E054
:102330000768AF430760F0BD1AB1838A0B438382FD
:1023400002E0838A8B4383827047028A4FF6F073E0
:102350001A400282028A0A430282704782894FF23F
:10236000FF731A40828182890A438281704721B1BA
:10237000828942F00202828104E082894FF6FD7375
:102380001A4082817047028A4FF6DF731A40028238
:10239000028A0A430282704721B1028A42F48042D3
:1023A000028204E0028A4BF6FF731A4002827047F1
:1023B000C1F308028280704701468888C0F3080094
:1023C0007047818941F0010181817047028BD2B24F
:1023D0000283028B42EA012202837047028B02F4DD
:1023E0007F420283028B0A430283704721B1828AB3
:1023F00042F02002828204E0828A4FF6DF731A40A4
:102400008282704721B1828A42F01002828204E007
:10241000828A4FF6EF731A408282704721B1828A16
:1024200042F00802828204E0828A4FF6F7731A4073
:102430008282704721B1828942F40042828103E0A6
:102440008289C2F30E028281704721B1828A42F4EE
:102450000062828204E0828A4FF2FF731A40828215
:102460007047828A4FF6FB731A408282828A0A433F
:102470008282704721B1828A42F00202828204E0A5
:10248000828A4FF6FD731A4082827047024600200E
:10249000B1F5007F00D100BF13880B4201D00120AD
:1024A00000E00020704701F40072B2F5007F00D117
:1024B00000BFCA430280704770B502460024002363
:1024C00000250020A1F510666A3E00D100BFC1F3CF
:1024D000421501F01F03012606FA03F3012D02D174
:1024E0009689334006E0022D02D1168A334001E07E
:1024F000968A33400C12012606FA04F416883440FA
:1025000013B10CB1012000E0002070BD10B5002215
:102510000023A1F510646A3C00D100BF0A12012417
:102520009440A3B2DC43048010BD00000038014099
:102530000044004000480040004C00400050004073
:1025400031490143314A1160704770B500210023C1
:102550000F22C4780CB32D4C246804F4E064C4F555
:10256000E064210AC1F10403CA40447804FA03F18B
:102570008478144021430901254C0678A15504783C
:1025800004F01F050124AC4005786D114FF0E026E2
:1025900006EB8505C5F8004109E0047804F01F0545
:1025A0000124AC401B4D0678761145F8264070BDDD
:1025B000194A0A400243154B1B1F1A60704739B174
:1025C000124A121D12680243104B1B1D1A6006E0CE
:1025D0000E4A121D126882430C4B1B1D1A60704775
:1025E000042808D14FF0E021096941F004014FF0BF
:1025F000E022116107E04FF0E021096921F00401B8
:102600004FF0E022116170470000FA050CED00E088
:1026100000E400E080E100E080FFFF1F10B5044609
:10262000BE48844208D101218014FEF742F80021FF
:10263000A014FEF73EF816E0B948844208D1012103
:102640000014FEF743F800212014FEF73FF80AE0DB
:10265000B448844207D10121C013FEF737F80021A6
:10266000E013FEF733F810BD10B50022028802F423
:1026700041520B884C8823438C882343CC882343C6
:102680000C8923434C8923438C892343CC892343DE
:102690001A430280838B4FF2FF74234083830B8A9B
:1026A000038210BD2DE9F04F85B005460C464FF072
:1026B000000902274FF000084FF0010B0026B24638
:1026C000A88B4FF240010840A88302202884B5F867
:1026D0001C90A068022801D100BF38E0A08810B982
:1026E0004FF0010B01E04FF0020B8D48854200D105
:1026F00000E000BF6846FDF756FFDDF800A0E08867
:10270000B0F5007F0AD14FEA1A2000EB80004000AC
:10271000A168B0FBF1F0401D86B20BE04FEA4B1010
:10272000BAFBF0F000EB80004000A168B0FBF1F0D4
:10273000401D86B20A20B6FBF0F606F00108A6EBB3
:102740000800C0F34F074FF6FF7000EA0828022F79
:1027500001DBFF2F02DD02274FF00008E08840EA8E
:10276000080038432884A088A18908436188084369
:102770002188084340F4006040EA0909A5F81C904C
:1027800005B0BDE8F08F0021018041808180C180CB
:10279000018141818181C18107210182704700212E
:1027A000018041808180C18002218160002181817E
:1027B000704721B1028842F04002028004E00288A2
:1027C0004FF6BF731A400280704721B1828B42F4EA
:1027D0008062828304E0828B4FF6FF331A4082834B
:1027E000704730B5002400230C110125A540ABB281
:1027F0001AB185881D43858002E085889D438580C8
:1028000030BD1AB183880B43838002E083888B43F9
:102810008380704781817047014688897047A1F5A0
:102820007E42FF3A04D0028842F48072028004E0C3
:1028300002884FF6FF631A400280704721B18288F8
:1028400042F00402828004E082884FF6FB731A4053
:102850008280704702884FF2FF731A40028002881C
:102860000A4302807047018841F48051018070471B
:1028700021B1028842F40052028004E002884DF641
:10288000FF731A400280704702460020012901D0E0
:10289000108B00E0908A70470146088A7047B1F5B6
:1028A000804F04D1028842F48042028004E0028812
:1028B0004BF6FF731A4002807047024600201389CE
:1028C0000B4201D0012000E000207047CA43028182
:1028D0007047F0B50246002000240023002501F0D7
:1028E0000F070126BE40B4B20B1101269E40B3B2C1
:1028F000968806EA03051689264202D00DB101200A
:1029000000E00020F0BD10B5002201F00F0401230B
:10291000A3409AB2D343038110BD000000300140B0
:1029200000380040003C00400E49086070470D49E7
:10293000486070470B49886070474AF6AA200949E9
:10294000086070474CF6CC40064908607047014665
:102950000020044AD2680A4201D0012000E0002091
:102960007047000000300040002044490860091D05
:102970000860091D0860091D086041483F4914317D
:102980000860704700213D498279002A3AD00A4602
:10299000126803689A430B461A600A1D126803689E
:1029A0009A430B1D1A60027911440A6803681A439E
:1029B0000A60324A0832126803689A432F4B083380
:1029C0001A601A1D126803689A432C4B0C331A6064
:1029D0004279102A0ED11A1F126803681A43274B36
:1029E00008331A601A1D126803681A43234B0C330C
:1029F0001A600DE02149427911440A6803681A43BC
:102A00000A6005E0027911440A6803689A430A6083
:102A100070470021016001710C2141710021817119
:102A200070471649103109680143144A1032116089
:102A3000704701460020114A143212680A4201D040
:102A4000012000E0002070470C49143108607047F5
:102A5000014600200022094B1B6803EA0102074BD4
:102A600014331B680B4202D00AB1012000E00020A1
:102A700070470249143108607047000000040140AB
:102A8000FFFF0F000FB41CB5074B06AA7B44694635
:102A90000090059800F035FA0020694600F044FAED
:102AA0001CBC5DF814FB00009904000070B50446DE
:102AB00085690068C10601D5302600E02026C007E0
:102AC00008D070BDD4E9012130469047206A00F15A
:102AD000010020626D1EF5D570BD70B50446856994
:102AE0000078C00708D170BDD4E9012120209047AB
:102AF000206A00F1010020626D1EF5D570BD000056
:102B00002DE9F0410646002410687529314616A5C6
:102B100011D0AFF30080002803DAC0F1000013A544
:102B200007E031688A0701D511A502E0490704D5FD
:102B300010A5012401E0AFF3008000210A2306F173
:102B4000240707E0B0FBF3F203FB120030307854A7
:102B50001046491C0028F5D123462A463046BDE8D8
:102B6000F04100F06DB90000000000002D000000F1
:102B70002B0000002000000070B504460D462146E1
:102B80001068AFF300802188090502D5104A7A4405
:102B900002E00F4A7A440E32002104F1240307E0D8
:102BA00000F00F064FEA1010965D5E5401F101012E
:102BB0000028F5D103462078000704D5702D02D0F7
:102BC00009B1113202232046BDE8704000F038B947
:102BD0008A0500002DE9F05F894604464FF0000A9F
:102BE000DFF828B1FB44C0F820A02046E168884700
:102BF00000287CD0252806D0D4E901219047206AFE
:102C0000401C2062F1E700255F462046E1688847C6
:102C10002028064608DB312E06D207EB060010F806
:102C2000200C08B10543F0E7A80701D525F00405FD
:102C3000C4F81CA00027C4F818A02A2E09D03046DA
:102C400000F04FFA38B304EB8708303EC8F818603C
:102C500019E059F8041B204604EB87029161E168F2
:102C60008847012F064618D1E069002820DA25F0B0
:102C700020051DE0D8F8180000EB800006EB4000AE
:102C80003038C8F818002046E1688847064600F04A
:102C900028FA0028EED1012F0AD02E2E08D1204686
:102CA000E16888477F1C0646022F45F02005C4DBFB
:102CB000A069002803DA404245F00105A061E80759
:102CC00001D025F0100596B1A6F14100192802D8CF
:102CD000203645F400654A463146204625604D467B
:102CE000FDF73EFA60B1012807D0ED1D00E009E0D4
:102CF00025F0070000F1080977E705F1040974E7FA
:102D0000304679E7206ABDE8F09F00005C050000CE
:102D100070B5064600F090F80468054630460A2271
:102D2000002100F006F92C6070BD40EA0103024664
:102D300030B59B0710D14FF0013400E008C208C93C
:102D40001D1B9D4315EAC41FF8D013F0FF0102F8C4
:102D5000011B0DD01B0AF8E711F8013B002B02F80C
:102D6000013B05D011F8013B002B02F8013BF3D1E8
:102D700030BD10B5431C02E010F8011B71B1810792
:102D8000FAD14FF0013202C88C1A8C4314EAC211F6
:102D9000F9D0C01A0A0603D0C01E10BDC01A10BD5B
:102DA0000A0401D0801E10BD0902FCD0401E10BDD7
:102DB0004FF0013C50F8042B51F8043B9A4221D1CA
:102DC000A2EB0C03934313EACC1317D150F8042B56
:102DD00051F8043B9A4215D1A2EB0C03934313EA3A
:102DE000CC130BD150F8042B51F8043B9A4209D173
:102DF000A2EB0C03934313EACC13DBD04FF000009B
:102E0000704700BFD01A01BAB1FA81F101F0180180
:102E100022FA01F0CB40C1F12001DBB2C0B2C01AEE
:102E20002CFA01F3D11A914311EAC311E6D170478C
:102E3000704770477047000000487047DC00002072
:102E40002DE9F0470D4699469246044600F12408C4
:102E50000168880604D5E06921F01001216000E0D6
:102E60000120A84202DDA0EB050700E00027A169D0
:102E700007EB050202EB0900A1EB0000A06120783E
:102E8000C00602D42046FFF711FE002608E0D4E970
:102E900001211AF806009047206A401C761C206227
:102EA0004E45F4DB2078C0060AD52046FFF7FEFD2C
:102EB00006E0D4E9012130209047206A401C2062BE
:102EC000381EA7F10107F4DC07E0D4E9012118F866
:102ED00005009047206A401C2062281EA5F10105CC
:102EE000F3DC2046FFF7F9FD2078000602D502202A
:102EF000BDE8F0870120FBE701694A1C0261087800
:102F0000704700B58FB0CDE9013100210591054929
:102F10007944CDE9031011466846FFF75BFE0FB018
:102F200000BD0000E5FFFFFF0A6802F8010B0A6020
:102F300070472DE9F04791460F468046044600262B
:102F400014F8015B2DB100F031F80068405DC00756
:102F5000F6D12B2D02D02D2D18D0641E4A463946AD
:102F6000204600F02BF827B13968A14201D1C7F8FB
:102F700000804FF0020471050BD54042002803DDAC
:102F8000FFF75AFF0460A007BDE8F08746F48066AB
:102F9000E4E70028F8DAFFF74FFF04606FF0004025
:102FA000F2E7000000487047DC00002010B500F098
:102FB00079F8001D10BD00BF390100002DE9F05F58
:102FC000824615468B4600270AF10104B94600786F
:102FD000302801D09DB113E014F8010B01277828A7
:102FE00003D0582801D045B10AE00DB1102D07D10A
:102FF000002714F8010B102502E0082500E00A253F
:103000000026B0460EE005FB080005FB06F101278F
:103010001FFA80F801EB1046B6F5803F00D3B946A1
:1030200014F8010B294600F041F80028EBDABBF157
:10303000000F05D00FB1641E00E05446CBF80040ED
:10304000B9F1000F06D0FFF7F7FE02210160C81E9C
:10305000BDE8F09F48EA0640FAE77546FFF7A2FF91
:10306000AE4605006946534620F00700854618B075
:1030700020B5FDF7A7F8BDE820404FF000064FF05F
:1030800000074FF000084FF0000B21F00701AC469D
:10309000ACE8C009ACE8C009ACE8C009ACE8C009BC
:1030A0008D46704700487047FC0000203A2800D247
:1030B000303820F02002412A01D3A2F137008842A3
:1030C00001D34FF0FF3070470446AFF30080204635
:1030D000FDF764F801491820ABBEFEE726000200A8
:1030E000704730380A2801D201207047002070470D
:1030F00010B500290AD00878002807D00548784480
:10310000FFF756FE002801D0002010BD0248784489
:1031100010BD00007A000000720000003031323330
:1031200034353637383941424344454640305800FB
:10313000303132333435363738396162636465662D
:103140004030780004000008000000000000000289
:10315000000100001000000088320008000000207C
:103160005C00000028010008E43200085C00002038
:10317000E4060000440100081001000043000000C4
:10318000F8FFFFFF00404040404040404040414188
:10319000414141404040404040404040404040402C
:1031A00040404040400502020202020202020202C6
:1031B00002020202022020202020202020202002C3
:1031C0000202020202029090909090901010101053
:1031D00010101010101010101010101010101010EF
:1031E0000202020202028888888888880808080883
:1031F000080808080808080808080808080808084F
:103200000202020240000000000000000000000076
:1032100000000000000000000000000000000000AE
:10322000000000000000000000000000000000009E
:10323000000000000000000000000000000000008E
:10324000000000000000000000000000000000007E
:10325000000000000000000000000000000000006E
:10326000000000000000000000000000000000005E
:10327000000000000000000000000000000000004E
:10328000000000000000000000366E010000000099
:103290000000000001020304060708090000000006
:1032A00001020304010203040607080902040608D8
:1032B000000000000000000000000000000000000E
:1032C00000000000000000000000000000000000FE
:1032D00000000000000000000000000000000000EE
:0432E00000000000EA
:04000005080000ED02
:00000001FF
