:020000040800F2
:1000000010080020C1010008C9010008CB01000848
:10001000CD010008CF010008D10100080000000058
:10002000000000000000000000000000D3010008F4
:10003000D501000800000000D7010008990B000856
:10004000DB010008DB010008DB010008DB01000820
:10005000DB010008DB0100081F170008DB010008B6
:10006000DB010008DB010008DB010008DB01000800
:10007000DB010008DB010008DB010008DB010008F0
:10008000DB010008DB010008DB010008DB010008E0
:10009000DB010008DB010008DB010008DB010008D0
:1000A000DB010008DB010008DB010008DB010008C0
:1000B000DB010008DB010008DB010008DB010008B0
:1000C000DB010008DB010008DB010008DB010008A0
:1000D000DB01000803080008DB010008DB01000861
:1000E000DB010008DB010008DB01000800F002F87A
:1000F00000F056F80AA090E8000C82448344AAF16C
:100100000107DA4501D100F04BF8AFF2090EBAE869
:100110000F0013F0010F18BFFB1A43F0010318473B
:10012000E054000000550000103A24BF78C878C1A0
:10013000FAD8520724BF30C830C144BF04680C60ED
:10014000704700000023002400250026103A28BF35
:1001500078C1FBD8520728BF30C148BF0B60704739
:10016000662905F0E381642903F08A84752903F088
:100170008784782903F0C084002070471FB504F0FD
:10018000EDF804000020002104F062FE401C6060D5
:100190000020002104F046FEE0601FBD10B510BD38
:1001A00004F028FA1146FFF7E9FF02F053FB04F0D0
:1001B00054FA03B4FFF7F2FF03BC04F055FA000051
:1001C0000948804709480047FEE7FEE7FEE7FEE7EB
:1001D000FEE7FEE7FEE7FEE7FEE7FEE70448054927
:1001E000054A064B70470000B9020008ED00000800
:1001F000100200201008002010040020100400202D
:100200000CB50020019000906048006840F48030F8
:100210005E49086000BF5D48006800F4003000904F
:100220000198401C0190009818B90198B0F5A06F92
:10023000F1D15648006810F4003F02D00120009030
:1002400001E0002000900098012830D14F4840681C
:100250004E49486008464068486008464068486023
:100260000846406820F47C1048600846406840F426
:10027000981048600846006840F08070086000BF31
:100280004248006810F0007FFAD04048406820F0F3
:1002900003003E4948600846406840F0020048605C
:1002A00000BF3A48406800F00C000828F9D10CBDA6
:1002B00010B5FFF7A5FF10BD10B53448006840F039
:1002C00001003249086008464068314908402F491A
:1002D0004860084600682F4908402C4908600846D5
:1002E000006820F4802008600846406820F4FE0082
:1002F00048604FF41F0088600020C862FFF7D8FFF5
:1003000010BD30B500210020002200231F4C64687E
:1003100004F00C0121B1042906D0082925D107E0F9
:100320001D4C1E4D2C6024E01B4C1C4D2C6020E00D
:10033000164C646804F47010144C646804F4803241
:10034000022404EB904022B9154C4443134D2C6019
:100350000AE00E4CE46A04F00F04631C0E4CB4FB7C
:10036000F3F444430D4D2C6003E00B4C0B4D2C601B
:1003700000BF00BF054C6468C4F30314094D295D38
:10038000064C2468CC40054D2C6030BD0010024066
:100390000000FFF8FFFFF6FE00127A0000000020C8
:1003A00000093D0004000020E448006840F001001E
:1003B000E249086008464068E1490840DF49486072
:1003C00008460068DF490840DC49086008460068C4
:1003D00020F4802008600846406820F4FE00486051
:1003E0004FF41F0088600020C8627047D349096835
:1003F00021F48031D14A11601146096821F480212D
:100400001160B0F5803F03D0B0F5802F0ED106E02B
:10041000CA49096841F48031C84A116007E0C749F8
:10042000096841F4A021C54A116000E000BF00BF87
:10043000704710B501460022002300204A11012A0E
:1004400002D1BE4C236806E0022A02D1BB4C236ACB
:1004500001E0BA4C636A01F01F02012494401C427F
:1004600001D0012000E0002010BD38B50020009030
:100470000024002500BF3120FFF7DBFF0546009870
:10048000401C00900098B0F5A06F01D0002DF2D074
:100490003120FFF7CEFF08B1012400E00024204600
:1004A00038BD01460020A54A106820F0F80040EA57
:1004B000C10010607047A4490860704702460020E0
:1004C0009E4B586820F4741042EA010318439B4B7A
:1004D000586070479C490866704702460020974B59
:1004E000D86A9A4B184042EA01031843934BD862EA
:1004F000704701460020914A506820F003000843ED
:10050000506070478D48406800F00C00704701460D
:1005100000208A4A506820F0F0000843506070477D
:1005200001460020854A506820F4E060084350608E
:10053000704701460020814A506820F4605040EA2C
:10054000C1005060704729B17C4A527A02437B4B0C
:100550005A7204E0794A527A8243784B5A72704751
:100560007B490860704701460020744A506820F4B7
:1005700040400843506070470021764A11706F4A2E
:1005800082F82010012802D0042808D103E00121BC
:10059000704A117004E005216E4A117000E000BF3E
:1005A00000BF70476C49086070476449096A01439D
:1005B000624A11627047684944390860704770B5F3
:1005C000002100230024002200255C4E766806F0FE
:1005D0000C0121B1042905D0082921D105E05F4E85
:1005E000066020E05D4E06601DE0544E766806F41D
:1005F0007013524E766806F48034022606EB93435D
:100600001CB9574E5E43066009E04C4EF66A06F090
:100610000F06751C514EB6FBF5F65E43066002E010
:100620004E4E066000BF00BF444E766806F0F001F3
:1006300009094C4E725C0668D64046603F4E7668AB
:1006400006F4E061090A474E725C4668D64086604F
:100650003A4E766806F46051C90A424E725C4668AA
:10066000D640C660354E766806F44041890B3E4E52
:10067000725CC668B6FBF2F6066170BD29B12F4AFE
:10068000526902432D4B5A6104E02C4A526982435D
:100690002A4B5A61704729B1284A92690243274B75
:1006A0009A6104E0254A92698243244B9A6170471B
:1006B00029B1224AD2690243204BDA6104E01F4A81
:1006C000D26982431D4BDA61704729B11B4AD26857
:1006D00002431A4BDA6004E0184AD2688243174B8F
:1006E000DA60704729B1154A12690243134B1A6147
:1006F00004E0124A12698243104B1A61704716498E
:100700004039086070471049C86470470B49C87188
:1007100070470A48406A40F0807008494862704754
:1007200001460020054A92680A4201D0012000E0FB
:100730000020704701498872704700000010024095
:100740000000FFF8FFFFF6FE00004242F0FFFEFF50
:10075000D8004242201002408004424200127A0037
:1007600000093D001400002024000020052800D2CC
:100770007047001F1721FA4A1180121D1080F84996
:100780001439098841F00101F54A143A1180F449FD
:100790002839098841F00901F14A283A118000BF3F
:1007A000EF492839098811F0010FF9D100BFDFE7BF
:1007B00010B5034643B1002404E04FF47A70FFF70C
:1007C000D5FF641C9C42F8D310BD70B5064600BF2F
:1007D000E448008810F0400FFAD0304603F089FA60
:1007E000054600240AE000BFDE48008810F0400FF4
:1007F000FAD0305DDB49091D0880641CAC42F2DB95
:1008000070BD38B540F22551D64802F015FE58B3F8
:10081000D44802F091FDC4B28DF8004000208DF85C
:1008200001000D2C0AD1D049D04A127888540120F9
:10083000CF4908700020CD49087010E0CB480078FF
:100840003F280CDAC9490878411CC84A1170C649CA
:100850000C540020127888546846FFF7B6FF40F227
:100860002551C04802F012FE38BD70B50546182D5E
:1008700000DD18254FF48051BE4802F07EFB0220B7
:10088000FFF774FF002418E0BB48015DBB4802F08D
:1008900081FF00BF8021B94802F0CFFF0128F9D0C5
:1008A00000BF0121B54802F0C8FF0128F9D1B348C3
:1008B00002F072FFB2490855641CAC42E4DB02202E
:1008C000FFF754FF4FF48051AA4802F054FB0A206E
:1008D000FFF74CFF70BD0EB50021084602F0B4FBD7
:1008E0000120019000208DF808000C208DF80900EF
:1008F00001208DF80A0001A803F004F806208DF805
:10090000000000208DF801000D208DF8020001206C
:100910008DF80300684602F0D8FD02209649087061
:100920002B204870412088700320FFF79EFF022093
:10093000914908706020487088700320FFF795FF88
:1009400002208D4908707020487060208870032054
:10095000FFF78BFF0220884908700C204870302078
:1009600088700320FFF781FF02208349087062200E
:100970004870082088700320FFF777FF81480088BF
:1009800007287DD2DFE800F00423426182A1C10084
:100990000220794908702A2048708020887003203E
:1009A000FFF763FF022074490870292048709120E6
:1009B00088700320FFF759FF02206F490870282034
:1009C0004870012088700320FFF74FFFBCE0022031
:1009D000694908702A204870802088700320FFF73A
:1009E00044FF02206449087029204870B5208870AF
:1009F0000320FFF73AFF02205F4908702820487063
:100A0000012088700320FFF730FF9DE002205A4943
:100A100008702A204870812088700320FFF725FF86
:100A200002205549087029204870B520887003209D
:100A3000FFF71BFF02205049087028204870012052
:100A400088700320FFF711FF7EE002204A490870FA
:100A50002A204870812088700320FFF706FF0220BB
:100A60004549087029204870BF2088700320FFF78F
:100A7000FCFE02204049087028204870022000E057
:100A800042E088700320FFF7F0FE5DE002203A4963
:100A900008702A204870842088700320FFF7E5FE44
:100AA00002203549087029204870B520887003203D
:100AB000FFF7DBFE02203049087028204870012033
:100AC00088700320FFF7D1FE3EE002202A4908701B
:100AD0002A204870892088700320FFF7C6FE022074
:100AE0002549087029204870BF2088700320FFF72F
:100AF000BCFE02202049087028204870022088701F
:100B00000320FFF7B2FE1FE000BF02201A49087061
:100B10002A204870982088700320FFF7A6FE022044
:100B20001549087029204870B52088700320FFF708
:100B30009CFE02201049087028204870012088700F
:100B40000320FFF792FE00BF00BF02200A49087091
:100B50000F204870082088700320FFF786FE0EBD26
:100B60002808004000380140B80000207F00002025
:100B700080000020000C01400801002000380040E7
:100B8000200100207A00002010B5C020FE49087026
:100B90000120FFF76AFE10BD10B5FC48006828B1BF
:100BA000FA480068401EF949086009E0F8480078F2
:100BB00018B11920F549086002E04B20F34908609C
:100BC000F4480068401CF3490860F3480068401C82
:100BD000F149086008460068B0F5FA7F09D9FFF7C7
:100BE000D3FF6420FFF7C2FDFFF775FE0020EA493E
:100BF0000860EA490868411CE84A1160142804D9D1
:100C000000201146086002F058FE10BD70B586B095
:100C1000FFF7CAFB0020FFF7E9FB0120FFF74BFCC1
:100C20004FF480110020FFF749FC0220FFF761FC20
:100C30000020FFF76CFC0020FFF772FC0120FFF79B
:100C400049FC01210420FFF726FD01210820FFF7C0
:100C500022FD01210420FFF72BFD01218803FFF76E
:100C60001AFD4FF48070ADF8140010208DF81700B5
:100C700002208DF8160005A9C94802F0D1F84FF4FA
:100C80008071C74802F079F9FE20ADF814001020F9
:100C90008DF8170003208DF8160005A9C04802F052
:100CA000BFF8C048008A032804D10221BC4802F0E2
:100CB00064F903E00221BA4802F05DF9B9480088FE
:100CC000032804D10421B64802F057F903E00421B7
:100CD000B34802F050F9B3484088032804D10821F2
:100CE000AF4802F04AF903E00821AD4802F043F9A9
:100CF000AC488088032804D11021A94802F03DF9AE
:100D000003E01021A64802F036F9A648C08803285F
:100D100004D12021A24802F030F903E02021A048AC
:100D200002F029F99F480089032804D140219C48FA
:100D300002F023F903E04021994802F01CF9994898
:100D40004089032804D18021954802F016F903E078
:100D50008021934802F00FF90320ADF81400102011
:100D60008DF8170003208DF8160005A98E4802F0B3
:100D700057F88C488089032804D101218A4802F061
:100D8000FCF803E00121884802F0F5F88548C089A5
:100D9000032804D10221844802F0EFF803E0022185
:100DA000814802F0E8F80120ADF8140004208DF825
:100DB000170002208DF8160005A9794802F030F8D6
:100DC00005A802F0B6F818208DF817004FF400704F
:100DD000ADF8140002208DF8160005A9704802F045
:100DE0001FF804208DF817000002ADF8140002204F
:100DF0008DF8160005A96A4802F012F801A802F061
:100E000007FA4FF4E13001900020ADF80800ADF88A
:100E10000A00ADF80C00ADF8100001A9634802F01B
:100E20008EF90121614802F016FA25208DF80000A4
:100E300001208DF80300684602F047FB01215B4862
:100E400002F009FA252000F01F0201219140420919
:100E50004FF0E02303EB8202C2F8001100BF012231
:100E600040F22551514802F002FA5149B1F1807F18
:100E700000D31DE021F07F40401E4FF0E022506182
:100E800050170F22002807DA13071E0E494B00F0F7
:100E90000F052D1F5E5503E013071D0E464B1D5415
:100EA00000BF00204FF0E02290610720106100BFDA
:100EB00045F2555002F0F8FC032002F0F8FC40F235
:100EC000E24002F0F7FC02F0F8FC02F0FBFC00202C
:100ED000304908602D490860384908702F4908607A
:100EE0002D4908603649086036490860364908705F
:100EF00027490870354908703549087000241AE000
:100F0000284830F81400032807D101210020314A75
:100F100002EBC4021160506007E04FF47C410020F6
:100F20002C4A02EBC402116050602B4800882B4908
:100F300021F81400641C092CE2DB06B070BD00B57A
:100F400087B001218803FFF7B3FB4FF48050ADF861
:100F5000180010208DF81B0002208DF81A0006A939
:100F6000114801F05DFF4FF480510F4802F003F883
:100F70004FF42040ADF8180018208DF81B00022017
:100F80008DF81A0006A92BE008010020840000203B
:100F90008100002088000020900000208C000020AC
:100FA0000008014038010020000C014000380140D9
:100FB000A1BC030018ED00E000E400E07F00002089
:100FC000AC000020B0000020800000207C00002049
:100FD0007D00002050010020A80000209801002082
:100FE000FE4801F01DFF4FF48040ADF818000420CA
:100FF0008DF81B0002208DF81A0006A9F74801F0B1
:101000000FFF01A802F07FFB0020ADF80400ADF84F
:101010000800ADF80A00ADF80C004FF40070ADF810
:101020000E002020ADF810000020ADF812004FF4A3
:101030008270ADF8060001A9E94802F0D5FA012155
:10104000E74802F076FB07B000BD2DE9F05F4FF0F6
:10105000000A0320E34908702C20487000208870A3
:101060000320FFF702FCE04890F802B01BF0010FEC
:1010700048D00020DD490860022403E00020D9495F
:101080000855641C182CF9D30320D6490870612038
:1010900048700620FFF7E9FBD3488078D4490870F0
:1010A000D148C0784870D04800798870CE484079DF
:1010B000C870084600784000497840EAE117CC48FB
:1010C000C078CB49897840EA012808F0FF054FEA4B
:1010D0002829C7B9012403E00020C2490855641C2F
:1010E000182CF9D39220BF4908700920FFF7BDFBE7
:1010F000002405E0BC49601C085CBE490855641C1E
:10110000082CF7D387E0BC480088874273D10124BC
:1011100003E00020B3490855641C182CF9D3922031
:10112000B04908700920FFF7A0FB002405E0AE4994
:10113000601C085CAF490855641C082CF7D30020DC
:10114000AE490870B9F1010F03D0B9F1020F5AD1BD
:1011500025E0092D05DC681EA94931F81000032897
:1011600004D00120A5490870824617E0A148007804
:1011700050B96A1EA34B03EBC20291886A1E53F852
:10118000320001F0FAFE09E06A1E9E4B03EBC20238
:1011900091886A1E53F8320001F0EDFE38E005F048
:1011A0007F05092D04DD012094490870824629E05D
:1011B0004DB9954E002403E0305D8E490855641CFE
:1011C000082CF9D31EE0681E8D4931F8100060B17B
:1011D000681E8E4901EBC006002403E0305D85499E
:1011E0000855641C082CF9D30CE0012083490870D1
:1011F0008246002404E00CE0FF207E490855641C70
:10120000082CF9D304E001207C490870824600BF15
:1012100001E04FF0020A5046BDE8F09F30B57C4A2D
:1012200012687C4B1A607A4A121D12687A4B1A6057
:10123000774A08321288704B1A80754A0A3212882F
:10124000764B1A8000210C2015E0714A825A12B2A6
:101250006B4B23F811201A4632F91120032A04DCC3
:101260001A4632F91120002A03DA0022644B23F8CF
:101270001120491C801C1E28E7D3654A825A684BFE
:101280001A801A461288502A01DD50221A80002244
:101290005D4C2260626009201AE05B4A1368526864
:1012A000120142EA13721B01574C23606260421E16
:1012B000534B33F8122052B1421E33F91220D31788
:1012C000256864682A4323434F4C22606360401EB4
:1012D0000028E2D130BD534A534B5A60534A5A60FA
:1012E00000BF514AD26812F0010FFAD14E4A12697A
:1012F00042F002024C4B1A61454A5A611A46126981
:1013000042F040021A6100BF474AD26812F0010F52
:10131000FAD1454A126922F00202434B1A611A4679
:10132000126942F001021A613A4A106881B200BFA4
:101330003D4AD26812F0010FFAD1354A1180000CF3
:10134000014600BF384AD26812F0010FFAD1304A84
:10135000921C1180304A106881B200BF324AD268B4
:1013600012F0010FFAD12A4A121D1180000C014619
:1013700000BF2D4AD26812F0010FFAD1244A921D03
:10138000118000BF284AD26812F0010FFAD11A4A20
:1013900012881F4B08331A8000BF234AD26812F00C
:1013A000010FFAD11D4A1288194B0A331A80002105
:1013B0000C200DE000BF1C4AD26812F0010FFAD1D8
:1013C0000F4A32F81120124BC2524A1C91B2801CB3
:1013D0001E28EFD3124A12880D4B29E0000C014061
:1013E000003800400801002020010020900000206B
:1013F0009400002098000020780000207E0000204B
:101400003801002028000020A0000020500100200A
:1014100000FC000870000020740000207A0000200A
:10142000A80000202301674500200240AB89EFCDD2
:10143000C25200BFF84AD26812F0010FFAD1F64A40
:10144000126922F00102F44B1A611A46126942F045
:1014500080021A6170472DE9F84F4FF0000AD34619
:10146000EE4800784000ED49497840EAE118EB4841
:10147000C078EA49897840EA01200090062503E017
:101480000020E74948556D1C182DF9DB0220E4497E
:10149000087031204870B8F1000F2AD0BDF8000064
:1014A00038B3DE4800788870DC484078C870DD4882
:1014B000007828B1D948807840F08000087103E0B6
:1014C000D6488078D6490871D448C07840F080006A
:1014D000D349487108208871002505E0D248415D54
:1014E000CF4AE81D11546D1C082DF7DB4FF0010B9E
:1014F000CCE0B8F1000FFBD16C466078012866D1D2
:10150000207801282DD1C84EC84930680968884222
:10151000EED1C2480078C2498870C0484078C8708F
:10152000BE4880780871BD48C07840F0800048719E
:101530000820887130460078C871304640780872BB
:101540003046807848723046C0788872B84C20782F
:10155000C872607808734FF0010B0120B54908701C
:1015600094E020780228C3D1AF4EB04930680968B2
:101570008842BDD1A9480078A9498870A748407819
:10158000C870A64880780871A448C07840F08000F0
:1015900048710820887130460078C871304640781C
:1015A00008723046807848723046C0788872A04C05
:1015B0002078C87260780873304600792146088028
:1015C000FFF789FEFFF72AFE4FF0010B5EE060781F
:1015D00002285BD197480078002857D1207840BB7B
:1015E000924CA0788E4988708C484078C87060789A
:1015F0000871207800F01F09084680F8059008203F
:10160000887100BF002504E0615D854AE81D115422
:101610006D1C042DF8DB884C002505E0615D804AD7
:1016200005F10B0011546D1C042DF7DB4FF0010B7D
:101630002CE02078012829D17B4E7C49306809684C
:10164000884223D17548007875498870734840787E
:10165000C8707248807808717048C07840F0800087
:1016600048710820887130460078C871304640784B
:1016700008723046807848723046C07888726C4C68
:101680002078C872607808734FF0010BBBF1000F2F
:1016900042D00F20FFF7E9F881206149087001204E
:1016A000FFF7E3F86548076800251FE00A20FFF709
:1016B0005DF803205A4908702C204870002088707B
:1016C0000320FFF7D2F85E48807810F0040F01D0B5
:1016D00001250BE05A488078012807D1FFF754FA1A
:1016E0006420FFF743F8FFF7F6F80125534909682E
:1016F000C81B01D4014600E04142022901DA002D55
:10170000D4D04E490968C81B01D4014600E04142CB
:10171000012901DD4FF0010A5046BDE8F88F10B5F0
:10172000FFF793FC044605203D4908702C204870C3
:10173000FF2088700020C8700420FFF796F80CB1D5
:10174000012C0BD1FFF787FE0446012C06D1FFF7D1
:101750001BFA6420FFF70AF8FFF7BDF805203049AF
:1017600008702C204870FF2088700020C87004206A
:10177000FFF77BF8012002F02BF910B1012002F0F5
:1017800038F910BD30B591B004460D4622462DA162
:1017900001A802F037F901A8FFF717F80A2C2AD29E
:1017A000DFE804F02905090D1115191D212527A0D1
:1017B000FFF70BF823E028A0FFF707F81FE029A0A8
:1017C000FFF703F81BE02AA0FEF7FFFF17E02BA0AE
:1017D000FEF7FBFF13E02CA0FEF7F7FF0FE02DA0B4
:1017E000FEF7F3FF0BE02EA0FEF7EFFF07E02FA0C0
:1017F000FEF7EBFF03E030A0FEF7E7FF00BF00BFFE
:10180000012D04D0022D63D0032D69D164E02DA0F9
:10181000FEF7DBFF68E05BE0002002409400002060
:10182000080100207E0000209800002074000020A5
:10183000780000207C00002070000020880000203C
:101840002001002043482530326400002028504108
:101850003229202020000000202850413329202058
:1018600020000000202850413429202020000000C2
:1018700020285041352920202000000020285041F8
:101880003629202020000000202850413729202020
:101890002000000020285042302920202000000095
:1018A00020285042312920202000000020285041CB
:1018B000312920202000000020202D2D2D20202047
:1018C00020000000445331384232300A0D0000003D
:1018D000BEA0FEF77AFF07E0BFA0FEF776FF03E0A9
:1018E000BFA0FEF772FF00BF00BF11B030BD2DE9F1
:1018F000F04F95B00120BC490870BCA0FEF765FF11
:10190000C6A1C94802F0D1F9C748FEF75EFF4FF003
:10191000040900F074BEC54800780028F9D0002002
:10192000C24908700027C24802F0E3F90646002EBB
:1019300000F0628600250CE0BD4802F0DAF90646A8
:10194000002504E0BA49681C085C48556D1CB54286
:10195000F8DBB74800782028EED0B54802F0C9F986
:10196000461E002E0BDD06E0002E04DB0020B049F1
:10197000885506B1761EAE48805D2028F4D0AC486C
:1019800002F0B7F9064600242AE0A948005D2028A5
:1019900003DBA748005D7E2805DDA548005D10B18A
:1019A0002420A3490855A248005D602804DDA04812
:1019B000005D20389E49085508E0254604E09C4912
:1019C000681C085C48556D1CB542F8DB9848005D02
:1019D000202804D19649601C085C2028EDD0641CA6
:1019E000B442D2DB002504E0002001A941F8250023
:1019F0006D1C4D45F8DB002500240BE08C48005D94
:101A0000202806D14D4504DA28466D1C01A941F86D
:101A10002040641CB442F1DB019868B1002504E069
:101A20008348405D05A948556D1C0198A842F7DC24
:101A3000002005A9485503E07D4905A802F035F9C5
:101A40007CA105A802F074F9A0B97BA1764802F048
:101A50002CF97548FEF7B9FE002063490870002490
:101A600003E0002072490855641C402CF9DB15B0D6
:101A7000BDE8F08F72A105A802F05AF9002845D1FF
:101A800065A0FEF7A2FE6FA0FEF79FFE73A0FEF713
:101A90009CFE7AA0FEF799FE7FA0FEF796FE88A036
:101AA000FEF793FE8DA0FEF790FE95A0FEF78DFE4B
:101AB0009CA0FEF78AFEA4A0FEF787FEABA0FEF76F
:101AC00084FEB2A0FEF781FEB8A0FEF77EFEC0A0A5
:101AD000FEF77BFEC6A0FEF778FECEA0FEF775FEF1
:101AE000D3A0FEF772FED9A0FEF76FFEE2A0FEF7CC
:101AF0006CFE49A0FEF769FEEAA0FEF766FEF5A0BF
:101B0000FEF763FE44A0FEF760FE0127002F5CD1C4
:101B1000F9A105A802F00CF90028F8D1F7480088CF
:101B2000072816D2DFE800F00406080A0C0F12009E
:101B3000F34E10E0F34E0EE0F34E0CE0F34E0AE0ED
:101B40004CF2503607E044F6206604E042F210768C
:101B500001E0002600BF00BFEDA0FEF736FEF1A1B8
:101B600005A801F04FFF05A8FEF72FFEF3A105A879
:101B700001F048FF05A8FEF728FEF7480268F7A124
:101B800005A801F03FFF05A8FEF71FFEF848026810
:101B9000F8A105A801F036FF05A8FEF716FEFA48E1
:101BA0000288FAA105A801F02DFF05A8FEF70DFE99
:101BB0003246FBA105A801F025FF05A8FEF705FEAA
:101BC00015A0FEF702FE0024FDE11CE269427574D7
:101BD000746F6E0A0D0000004750494F0A0D000057
:101BE0002D2D2D0A0D000000810000200D0A0D0A88
:101BF000286329204F70656E2D504C430D0A286FC5
:101C000070656E2D706C632E636F6D290D0A0D0A61
:101C10003F202D2068656C700D0A00000D0A436F8F
:101C20006E6669673E200000F800002080000020FA
:101C3000B8000020510000000A0D57313E2000007E
:101C40003F0000000D0A3F202020202020202D20D2
:101C50005468697320706167650000000D0A712087
:101C60002020202020202D20457869742066726F66
:101C70006D20436F6E666967000000000D0A73688F
:101C80002020202020202D2053686F772070617243
:101C9000616D6574657273000D0A636E203C4E6E53
:101CA0003E202D20736574204E6E206F6E204341C0
:101CB0004E206275732028312E2E313030290000DD
:101CC0000D0A6373203C4E6E3E202D2073657420F8
:101CD00043414E2073706565640000000D0A2020AA
:101CE00020202020202020204E6E203D20303B2030
:101CF00053706565642035303030303000000000AE
:101D00000D0A202020202020202020204E6E203D63
:101D100020313B20537065656420323530303030DF
:101D2000000000000D0A202020202020202020205C
:101D30004E6E203D20323B20537065656420313269
:101D400035303030000000000D0A202020202020F7
:101D5000202020204E6E203D20333B2053706565AF
:101D60006420313030303030000000000D0A202077
:101D700020202020202020204E6E203D20343B209B
:101D80005370656564203530303030000D0A2020F6
:101D900020202020202020204E6E203D20353B207A
:101DA0005370656564203230303030000D0A2020D9
:101DB00020202020202020204E6E203D20363B2059
:101DC00053706565642031303030300A0D000000FA
:101DD0000D0A6374203C43483E203C4E6E3E202D4D
:101DE00020736574204348207479706500000000FA
:101DF0000D0A202020202020202020204E6E203D73
:101E000020303B204E6F7420636F6E6E6563746587
:101E1000640000000D0A2020202020202020202007
:101E20004E6E203D20313B20445331384232300049
:101E30000D0A202020202020202020204E6E203D32
:101E400020323B2069427574746F6E000D0A2020A9
:101E500020202020202020204E6E203D20333B20BB
:101E60006269646972656374696F6E616C20475062
:101E7000494F2022312200000D0A2020202020205E
:101E8000202020204E6E203D20343B206269646972
:101E900072656374696F6E616C204750494F2022F0
:101EA000302200000D0A746D203C4E6E3E20202032
:101EB0005365742074696D656F757420666F722048
:101EC00069427574746F6E2C204E6E3D302E2E312B
:101ED000300000000D0A736420302F3120202020B4
:101EE00053686F772044617461202820666F7220E8
:101EF0006465627567202900534800007A0000205D
:101F000020A1070090D0030048E80100A08601004E
:101F10000D0A3F202D20666F722068656C700A0DD7
:101F20000A0D00004E616D65202020202020202019
:101F30002056616C75650D0A000000002D2D2D2DB9
:101F40002D2D2D2D2D2D2D20202D2D2D2D2D2D2DDB
:101F50002D2D2D0D0A0000007000002044657669CB
:101F600063652054797065202025750D0A000000F6
:101F700074000020532F4E202020202020202020DD
:101F80002025750D0A000000780000204E6E206F9D
:101F90006E2043414E2020202025750D0A000000B0
:101FA00043414E2053706565642020202025642025
:101FB0006270730D0A000000F84830F91410601CBC
:101FC000FFF7E0FB641C092CF6DBAFF2B430FEF740
:101FD000FCFBF348B0F800B04FEAEB700BEB50702D
:101FE000C210F0A105A801F00DFD05A8FEF7EDFB5C
:101FF000F248007818B1F2A0FEF7E7FB02E0F5A086
:10200000FEF7E3FB0127002F4CD1F7A105A801F053
:102010008FFE002846D18DF814000198C8B30298AD
:1020200088B100240198451C06E0F048425D204636
:10203000641C05A90A546D1C0298A842F5DC002016
:1020400005A9085513E0E94801F053FE06460024AF
:102050000198451C06E0E548425D2046641C05A940
:102060000A546D1CB542F6DB002005A908559DF801
:102070001400B0B105A801F00BFE0446002C09DDE8
:10208000652C07DADA490C80FFF725F9FFF7C6F867
:1020900007E003E0D7A0FEF798FB02E0DEA0FEF722
:1020A00094FB0127002F54D1E0A105A801F040FEC8
:1020B00000284ED18DF814000198E0B3029888B141
:1020C00000240198451C06E0C848425D2046641C77
:1020D00005A90A546D1C0298A842F5DC002005A948
:1020E000085513E0C14801F004FE0646002401989B
:1020F000451C06E0BD48425D2046641C05A90A5403
:102100006D1CB542F6DB002005A908559DF81400AA
:10211000F0B105A801F0BCFD0446002C11DB072C32
:102120000FDAC3490C80FFF7D6F8FFF777F8FEF710
:102130002BFD642000E008E0FEF718FBFEF7CBFB68
:1021400006E0BCA0FEF741FB02E0B3A0FEF73DFBBA
:102150000127002F7DD1BCA105A801F0E9FD0028D1
:1021600077D1804682468DF81400019878B30298A2
:1021700088B100240198451C06E09C48425D204639
:10218000641C05A90A546D1C0298A842F5DC0020C5
:1021900005A9085513E0954801F0ABFD064600245B
:1021A0000198451C06E09148425D2046641C05A943
:1021B0000A546D1CB542F6DB002005A908559DF8B0
:1021C000140020B105A801F063FD1FFA80F800207B
:1021D0008DF81400029880B3039890B100240298FF
:1021E000451C06E08148425D2046641C05A90A544E
:1021F0006D1C0398401CA842F4DC002005A908557A
:1022000013E07A4801F075FD064600240298451C4B
:1022100006E07648425D2046641C05A90A546D1C00
:10222000B542F6DB002005A908559DF8140020B141
:1022300005A801F02DFD1FFA80FAB8F10A0F13DA94
:10224000B8F1000F10DDBAF1040F0DDA0FFA8AF1C0
:1022500000E00DE0A8F10100504A22F81010FFF74D
:102260003AF8FEF7DBFF02E078A0FEF7AEFA0127AE
:10227000EFBB7CA105A801F05BFDC0BB00208DF881
:1022800014000198A0B3029888B100240198451C5D
:1022900006E05648425D2046641C05A90A546D1CA0
:1022A0000298A842F5DC002005A9085513E04F4824
:1022B00001F01FFD064600240198451C06E04B482E
:1022C000425D2046641C05A90A546D1CB542F6DB2C
:1022D000002005A908559DF81400B0B105A801F02B
:1022E000D7FC0446002C09DD6048046001E00DE0E5
:1022F00008E0FEF7F0FFFEF791FF06E05CA0FEF7B6
:1023000064FA02E044A0FEF760FA0127EFBB5DA18A
:1023100005A801F00DFDC0BB00208DF81400019848
:10232000A0B3029888B100240198451C06E02F480C
:10233000425D2046641C05A90A546D1C0298A842FF
:10234000F5DC002005A9085513E0284801F0D1FC70
:10235000064600240198451C06E02448425D2046BC
:10236000641C05A90A546D1CB542F6DB002005A9C2
:1023700008559DF8140078B105A801F089FC0446C1
:10238000002C0ADD4148046001E08BE085E0FEF7A7
:10239000A2FFFEF743FF84E083E079E038010020EC
:1023A000A800002042544E2074696D656F7574203A
:1023B000202564207365630D0A0000007D00002065
:1023C00053686F772044617461202020204F4E0DA8
:1023D0000A00000053686F77204461746120202058
:1023E000204F46460D0A0000434E0000B800002072
:1023F000780000200D0A4572726F722043414E2012
:102400006E756D6265722E20456E61626C6520315D
:102410002E2E3130300D0A000D0A436F6D6D616E46
:1024200064206572726F720D0A0000004353000051
:102430007A0000200D0A4572726F722043414E20CF
:1024400073706565640D0A00435400000D0A43541F
:10245000202D20436F6D6D616E64206572726F7206
:102460000D0A00005752534E000000007400002077
:102470000D0A4572726F72206E756D6265720D0A7B
:10248000000000005752445400000000700000207B
:10249000AFF22400FEF799F903E0AFF28400FEF7F3
:1024A00094F90127CFBBF9A105A801F041FCA0BB1D
:1024B00000208DF81400019880B3029888B10024A0
:1024C0000198451C06E0F248425D2046641C05A9BF
:1024D0000A546D1C0298A842F5DC002005A9085595
:1024E00013E0EB4801F005FC064600240198451C6A
:1024F00006E0E748425D2046641C05A90A546D1CAD
:10250000B542F6DB002005A908559DF814003128D6
:1025100005D10120DF49087009E009E003E000204F
:10252000DC49087003E0AFF21010FEF74EF9012706
:10253000EFBBD9A105A801F0FBFBC0BB00208DF8C3
:1025400014000198A0B3029888B100240198451C9A
:1025500006E0CF48425D2046641C05A90A546D1C64
:102560000298A842F5DC002005A9085513E0C848E8
:1025700001F0BFFB064600240198451C06E0C44854
:10258000425D2046641C05A90A546D1CB542F6DB69
:10259000002005A908559DF81400E8B105A801F030
:1025A00077FB0446002C0FDB0B2C0DDA01E014E066
:1025B0000EE04FF6FF7000EAC400B8490880FEF74D
:1025C0008AFEFEF72BFE07E0B5A0FEF7FEF803E05B
:1025D000AFF2BC10FEF7F9F801274FB9B5A0FEF72E
:1025E000F4F8B9A0FEF7F1F8BC48FEF7EEF806E003
:1025F000BA48FEF7EAF802E0B848FEF7E6F8B8484D
:10260000007800287FF487A900BFFFF730BA0822BE
:102610000DE080EA010313F0010F03D08C2383EA5D
:10262000600300E0431018464910531EDAB2002A36
:10263000EFD170472DE9F04104460E4600253AE0FF
:1026400015B146FA05F700E0374607F00107C7B1B4
:10265000A44A02EBC4029188A24A52F8340000F066
:102660008CFC0F20FEF782F89E4A02EBC402918890
:102670009C4A52F8340000F07EFC3C20FEF776F8CD
:1026800017E0984A02EBC4029188964A52F8340047
:1026900000F073FC3C20FEF769F8924A02EBC4029A
:1026A0009188904A52F8340000F065FC0F20FEF744
:1026B0005DF8681CC5B2082DC2DBBDE8F0812DE9CC
:1026C000F04F8BB0044600273DE000200A90824680
:1026D00031E0844A02EBC4029188824A52F8340005
:1026E00000F04BFC0520FEF741F87E4A02EBC402E5
:1026F00091887C4A52F8340000F03DFC0A20FEF735
:1027000035F8784A02EBC4029188764A52F83400D0
:1027100000F017FC8146B9F1000F05D009FA0AF064
:102720000A990843C0B20A903C20FEF71FF80AF14C
:10273000010000F0FF0ABAF1080FCADB07A90A98E6
:10274000C855781CC7B2092FBFDB4FF0000B00271C
:1027500007E007A8C15D5846FFF759FF8346781C7C
:10276000C7B2082FF5DB604830F81400012837D1D4
:102770009DF8240058452BD19DF81D804FEA082074
:102780000FFA80F89DF81C0040EA0808404602F065
:10279000FFFC0022554BCDE9000102F0A1FB002215
:1027A000534BCDE9020102F05DFDCDE9040102F0D9
:1027B00065FB0690069802F053FE0FFA80F84FEA88
:1027C000E8704C4901EBC401C1F8008048603EE06C
:1027D00049488112474A02EBC4021060516036E05A
:1027E000414830F81400022831D100252E46002738
:1027F00008E0300240EA15662D0207A8C05D0543D7
:10280000781CC7B2082FF4DB4FF0FF3185EA0100D6
:102810007140084316D1394830F8140038B13748B0
:1028200030F81400401E354921F814000FE03148FB
:1028300000EBC40005604660184800882F4921F865
:10284000140004E02B4800EBC400056046600BB0A8
:10285000BDE8F08FA4B0FDF72FFDFEF7DFFCFEF71B
:10286000D5F9FEF76CFBFEF78FF96420FDF77EFFCC
:10287000FEF731F8AFF64041184801F016FA40F281
:1028800025511F4800F002FE002442E0534400009E
:10289000B80000207D000020544D0000A80000205A
:1028A0000D0A4572726F7220544D206E756D62650F
:1028B000720D0A000A0D556E6B6E6F776E20636F96
:1028C0006D6D616E640000000A0D3F202D20666F63
:1028D000722068656C700A0D00000000F80000208E
:1028E0008100002028000020380100200000304036
:1028F000000024405001002000FCFFFF9801002050
:1029000000380140EFA0FDF760FF6420FDF750FFA5
:10291000641C032CF6D3AFF63C50FDF756FFEA4893
:1029200000682290CCE1E9480068002835D10024F5
:1029300030E0E74830F81400012824D1E54A02EBE2
:10294000C4029188E34A52F8340000F016FB4FF4B9
:10295000FA70FDF70BFFDF4A02EBC4029188DD4AF3
:1029600052F8340000F007FB4FF4FA70FDF7FEFE5A
:10297000A0B2CC21FFF75EFE1E20FDF7F7FEA0B24D
:102980004421FFF757FE0120D0490860CE48D0F817
:1029900000B0641C092CCCD369E0CC480068012845
:1029A00010D1C9490968B1EB0B0001D4014600E020
:1029B000414264295BDB0220C4490860C248D0F868
:1029C00000B054E0C148006802283BD1002436E042
:1029D000BF4830F8140001282AD1BE4A02EBC402D5
:1029E0009188BC4A52F8340000F0C7FA4FF4FA70EC
:1029F000FDF7BCFEB74A02EBC4029188B54A52F813
:102A0000340000F0B8FA4FF4FA70FDF7AFFEA0B250
:102A1000CC21FFF70FFE1E20FDF7A8FEA0B2BE21BD
:102A2000FFF708FE1E20FDF7A1FEA0B2FFF747FE4C
:102A30000320A6490860A448D0F800B0641C092C03
:102A4000C6D314E0A1480068032810D19E49096844
:102A5000B1EB0B0001D4014600E04142B1F5967F95
:102A600005DB0020994908609748D0F800B09A48E3
:102A70000068C8B900240EE0954830F81400022818
:102A800008D1944A02EBC4029188924A52F8340069
:102A900000F073FA641C092CEED301208E49086003
:102AA0008948006823903BE08B480068012837D1B3
:102AB00085490A682399501A01D4014600E0414231
:102AC00019292DDB00240EE0814830F8140002287B
:102AD00008D1804A02EBC40291887E4A52F8340041
:102AE00000F049FA641C092CEED34FF4FA70FDF79C
:102AF0003DFE00240FE0764830F81400022809D18A
:102B0000A0B23321FFF796FD1E20FDF72FFEA0B2E5
:102B1000FFF7D5FD641C092CEDD300206E49086039
:102B2000002414E06A4830F8140003280ED1694AE2
:102B300002EBC4029188674A52F8340000F001FAAF
:102B40000021664A02EBC40210605160641C092C2B
:102B5000E8D35D490A682299501A01D4014600E081
:102B6000414264297EDD5E49097800297AD05D49B9
:102B70000978002976D15C48056846685BA0FDF7B6
:102B800024FE00240FE00F2005EA00094A4659A15F
:102B900002A800F037FF02A8FDF717FE280940EA57
:102BA00006753609641C092CEDD3AFF2C870FDF729
:102BB0000CFE002458E0464830F81400002850D09D
:102BC000464800EBC40A621C4BA102A800F01AFFA1
:102BD00002A8FDF7FAFD4FF000090AE01AF80920F3
:102BE00048A102A800F00EFF02A8FDF7EEFD09F1D2
:102BF0000109B9F1080FF1D3354830F81400012864
:102C000019D1364800EBC40002684168104602F052
:102C1000D7FA00223D4BCDE9000102F061F90746E9
:102C200088463A4643463AA102A800F0EBFE02A8C5
:102C3000FDF7CBFD11E0264830F8140003280CD135
:102C4000264800EBC4010868496882B233A102A893
:102C500000F0D8FE02A8FDF7B8FDAFF67800FDF74A
:102C6000B4FD00E009E0641C092CA4D3AFF68C008D
:102C7000FDF7ABFD1448006822902A480078F8B1AF
:102C800000202849087028A1164801F051F810B911
:102C9000FEF72DFE14E0134801F02BF868B123A0D5
:102CA000FDF793FD26A0FDF790FD002403E0002032
:102CB0000C490855641C402CF9D32848FDF785FDC4
:102CC00031E600002B00000088000020AC0000204E
:102CD0003801002028000020B00000205001002012
:102CE0007D000020B8000020A000002043464720BF
:102CF000203D200025640000434825303264203DFB
:102D00000000000020253032580000000000244060
:102D1000202F202530332E3166000000202F202563
:102D20006400000080000020636667000D0A556E95
:102D3000636E6F776E20636F6D6D616E640D0A0058
:102D40007072696E74203C6366673E20666F722005
:102D5000436F6E6669670D0A00000000F8000020EE
:102D600010B50446CA48844208D101210420FDF769
:102D7000ACFC00210420FDF7A8FC46E0C5488442D5
:102D800008D101210820FDF7A0FC00210820FDF753
:102D90009CFC3AE0C048844208D101211020FDF794
:102DA00094FC00211020FDF790FC2EE0BB488442EB
:102DB00008D101212020FDF788FC00212020FDF70B
:102DC00084FC22E0B648844208D101214020FDF76E
:102DD0007CFC00214020FDF778FC16E0B1488442DD
:102DE00008D101218020FDF770FC00218020FDF733
:102DF0006CFC0AE0AC48844207D101218015FDF744
:102E000064FC0021A015FDF760FC10BD10B5012188
:102E10000846FDF75AFC00210120FDF756FC10BDC5
:102E20002DE9F04102460025002600200023002461
:102E3000002791F803C00CF00F0591F803C01CF0B7
:102E4000100F03D091F802C04CEA050591F800C0BC
:102E5000BCF1000F31D0146800202BE04FF0010CC2
:102E60000CFA00F3B1F800C00CEA03069E4220D130
:102E700083004FF00F0C0CFA03F7BC4305FA03FC78
:102E80004CEA040491F803C0BCF1280F06D14FF0BE
:102E9000010C0CFA00FCC2F814C00AE091F803C05F
:102EA000BCF1480F05D14FF0010C0CFA00FCC2F840
:102EB00010C0401C0828D1D31460B1F800C0BCF188
:102EC000FF0F34DD546800202EE000F1080C4FF0B5
:102ED000010808FA0CF3B1F800C00CEA03069E42A0
:102EE00021D183004FF00F0C0CFA03F7BC4305FA15
:102EF00003FC4CEA040491F803C0BCF1280F05D18F
:102F000000F1080C08FA0CF8C2F8148091F803C01C
:102F1000BCF1480F07D100F1080C4FF0010808FA86
:102F20000CF8C2F81080401C0828CED35460BDE8CD
:102F3000F0814FF6FF710180022181700421C17080
:102F400070470246002093680B4201D0012000E048
:102F5000002070470146886880B270470246002012
:102F6000D3680B4201D0012000E0002070470146E9
:102F7000C86880B2704701617047416170470AB10B
:102F8000016100E041617047C16070474FF48032D9
:102F90000A43826181618261826982697047024667
:102FA0000020424B18684FF68073184040EA021028
:102FB00008433E4B186070473D49C8617047F0B503
:102FC0000A46002300240021002500F00046B6F147
:102FD000004F02D1354EF16901E0344E7168C0F303
:102FE000034583B200F44016B6F5401F08D121F026
:102FF00070612E4E766826F070662C4F7E6012E06F
:1030000000F48016B6F5801F06D1032606FA05F4F3
:10301000A14341F0706106E0460D360103FA06F661
:10302000B14341F0706122B1460D360103FA06F654
:10303000314300F00046B6F1004F02D11B4EF16162
:1030400001E01A4E7160F0BD30B500228B071C0FF5
:103050000F2303FA04F2154B08338C1053F8243075
:103060009343124C08348D1044F8253023468C10BD
:1030700053F824308C07240F00FA04F423430B4C3C
:1030800008348D1044F8253030BD0A490860704777
:1030900000080140000C01400010014000140140F4
:1030A00000180140001C01400020014000000140C8
:1030B00000002042DC00204210B50446FB48844258
:1030C00009D101218803FDF700FB00214FF4804066
:1030D000FDF7FBFA32E0F648844209D101214804A9
:1030E000FDF700FB00214FF40030FDF7FBFA25E06F
:1030F000F048844209D101218804FDF7F3FA002148
:103100004FF48020FDF7EEFA18E0EB48844209D135
:103110000121C804FDF7E6FA00214FF40020FDF775
:10312000E1FA0BE0E548844208D101210805FDF7EA
:10313000D9FA00214FF48010FDF7D4FA10BD2DE923
:10314000F04786B005460E460024A24600BFA146C1
:103150000027B08900B100BF2F462C8A4CF6FF70C3
:103160000440F08804432C82AC894EF6F3100440EE
:10317000B08831890843718908430443AC81AC8A23
:103180004FF6FF400440B0890443AC8201A8FDF72C
:1031900016FAC648874202D1DDF810A001E0DDF83A
:1031A0000CA0A88910F4004F08D00AEBCA0000EB6D
:1031B0000A1031684900B0FBF1F807E00AEBCA00D9
:1031C00000EB0A1031688900B0FBF1F86420B8FB0D
:1031D000F0F004012009642101FB1089A88910F492
:1031E000004F08D0322000EBC900B0FBF1F000F036
:1031F0000700044308E0322000EB09106421B0FB13
:10320000F1F000F00F0004432C8106B0BDE8F08718
:103210004FF41651016000218180C18001810C2191
:10322000418100218181704710B502460020108A3B
:103230004FF2FF0318400B884C8823438C882343AC
:10324000CC8823431843108210BD002101804180A7
:103250008180C180704721B1828942F4005282810D
:1032600004E082894DF6FF731A4082817047F0B501
:1032700003460024002600250020A1F510676A3FC0
:1032800000D100BF1846C1F3421401F01F06012708
:1032900007FA06F5012C01D10C3004E0022C01D113
:1032A000103000E014301AB107682F43076002E0C5
:1032B0000768AF430760F0BD1AB1838A0B4383826E
:1032C00002E0838A8B4383827047028A4FF6F07351
:1032D0001A400282028A0A430282704782894FF2B0
:1032E000FF731A40828182890A438281704721B12B
:1032F000828942F00202828104E082894FF6FD73E6
:103300001A4082817047028A4FF6DF731A400282A8
:10331000028A0A430282704721B1028A42F4804243
:10332000028204E0028A4BF6FF731A400282704761
:10333000C1F308028280704701468888C0F3080004
:103340007047818941F0010181817047028BD2B2BF
:103350000283028B42EA012202837047028B02F44D
:103360007F420283028B0A430283704721B1828A23
:1033700042F02002828204E0828A4FF6DF731A4014
:103380008282704721B1828A42F01002828204E078
:10339000828A4FF6EF731A408282704721B1828A87
:1033A00042F00802828204E0828A4FF6F7731A40E4
:1033B0008282704721B1828942F40042828103E017
:1033C0008289C2F30E028281704721B1828A42F45F
:1033D0000062828204E0828A4FF2FF731A40828286
:1033E0007047828A4FF6FB731A408282828A0A43B0
:1033F0008282704721B1828A42F00202828204E016
:10340000828A4FF6FD731A4082827047024600207E
:10341000B1F5007F00D100BF13880B4201D001201D
:1034200000E00020704701F40072B2F5007F00D187
:1034300000BFCA430280704770B5024600240023D3
:1034400000250020A1F510666A3E00D100BFC1F33F
:10345000421501F01F03012606FA03F3012D02D1E4
:103460009689334006E0022D02D1168A334001E0EE
:10347000968A33400C12012606FA04F4168834406A
:1034800013B10CB1012000E0002070BD10B5002286
:103490000023A1F510646A3C00D100BF0A12012488
:1034A0009440A3B2DC43048010BD0000003801400A
:1034B0000044004000480040004C004000500040E4
:1034C00031490143314A1160704770B50021002332
:1034D0000F22C4780CB32D4C246804F4E064C4F5C6
:1034E000E064210AC1F10403CA40447804FA03F1FC
:1034F0008478144021430901254C0678A1550478AD
:1035000004F01F050124AC4005786D114FF0E02652
:1035100006EB8505C5F8004109E0047804F01F05B5
:103520000124AC401B4D0678761145F8264070BD4D
:10353000194A0A400243154B1B1F1A60704739B1E4
:10354000124A121D12680243104B1B1D1A6006E03E
:103550000E4A121D126882430C4B1B1D1A607047E5
:10356000042808D14FF0E021096941F004014FF02F
:10357000E022116107E04FF0E021096921F0040128
:103580004FF0E022116170470000FA050CED00E0F9
:1035900000E400E080E100E080FFFF1F10B504467A
:1035A000BE48844208D101218014FDF78EF8002125
:1035B000A014FDF78AF816E0B948844208D1012129
:1035C0000014FDF78FF800212014FDF78BF80AE0B6
:1035D000B448844207D10121C013FDF783F80021CC
:1035E000E013FDF77FF810BD10B50022028802F449
:1035F00041520B884C8823438C882343CC88234337
:103600000C8923434C8923438C892343CC8923434E
:103610001A430280838B4FF2FF74234083830B8A0B
:10362000038210BD2DE9F04F85B005460C464FF0E2
:10363000000902274FF000084FF0010B0026B246A8
:10364000A88B4FF240010840A88302202884B5F8D7
:103650001C90A068022801D100BF38E0A08810B9F2
:103660004FF0010B01E04FF0020B8D48854200D175
:1036700000E000BF6846FCF7A2FFDDF800A0E0888C
:10368000B0F5007F0AD14FEA1A2000EB800040001D
:10369000A168B0FBF1F0401D86B20BE04FEA4B1081
:1036A000BAFBF0F000EB80004000A168B0FBF1F045
:1036B000401D86B20A20B6FBF0F606F00108A6EB24
:1036C0000800C0F34F074FF6FF7000EA0828022FEA
:1036D00001DBFF2F02DD02274FF00008E08840EAFF
:1036E000080038432884A088A189084361880843DA
:1036F0002188084340F4006040EA0909A5F81C90BD
:1037000005B0BDE8F08F0021018041808180C1803B
:10371000018141818181C18107210182704700219E
:10372000018041808180C1800221816000218181EE
:10373000704721B1028842F04002028004E0028812
:103740004FF6BF731A400280704721B1828B42F45A
:103750008062828304E0828B4FF6FF331A408283BB
:10376000704730B5002400230C110125A540ABB2F1
:103770001AB185881D43858002E085889D43858038
:1037800030BD1AB183880B43838002E083888B436A
:103790008380704781817047014688897047A1F511
:1037A0007E42FF3A04D0028842F48072028004E034
:1037B00002884FF6FF631A400280704721B1828869
:1037C00042F00402828004E082884FF6FB731A40C4
:1037D0008280704702884FF2FF731A40028002888D
:1037E0000A4302807047018841F48051018070478C
:1037F00021B1028842F40052028004E002884DF6B2
:10380000FF731A400280704702460020012901D050
:10381000108B00E0908A70470146088A7047B1F526
:10382000804F04D1028842F48042028004E0028882
:103830004BF6FF731A40028070470246002013893E
:103840000B4201D0012000E000207047CA430281F2
:103850007047F0B50246002000240023002501F047
:103860000F070126BE40B4B20B1101269E40B3B231
:10387000968806EA03051689264202D00DB101207A
:1038800000E00020F0BD10B5002201F00F0401237C
:10389000A3409AB2D343038110BD00000030014021
:1038A00000380040003C00400E49086070470D4958
:1038B000486070470B49886070474AF6AA2009495A
:1038C000086070474CF6CC400649086070470146D6
:1038D0000020044AD2680A4201D0012000E0002002
:1038E0007047000000300040002044490860091D76
:1038F0000860091D0860091D086041483F491431EE
:103900000860704700213D498279002A3AD00A4672
:10391000126803689A430B461A600A1D126803680E
:103920009A430B1D1A60027911440A6803681A430E
:103930000A60324A0832126803689A432F4B0833F0
:103940001A601A1D126803689A432C4B0C331A60D4
:103950004279102A0ED11A1F126803681A43274BA6
:1039600008331A601A1D126803681A43234B0C337C
:103970001A600DE02149427911440A6803681A432C
:103980000A6005E0027911440A6803689A430A60F4
:1039900070470021016001710C214171002181718A
:1039A00070471649103109680143144A10321160FA
:1039B000704701460020114A143212680A4201D0B1
:1039C000012000E0002070470C4914310860704766
:1039D000014600200022094B1B6803EA0102074B45
:1039E00014331B680B4202D00AB1012000E0002012
:1039F000704702491431086070470000000401401C
:103A0000FFFF0F000FB41CB5074B06AA7B446946A5
:103A10000090059800F045FC0020694600F054FC39
:103A20001CBC5DF814FB0000B908000070B504462A
:103A300085690068C10601D5302600E02026C00750
:103A400008D070BDD4E9012130469047206A00F1CA
:103A5000010020626D1EF5D570BD70B50446856904
:103A60000078C00708D170BDD4E90121202090471B
:103A7000206A00F1010020626D1EF5D570BD0000C6
:103A80002DE9F0410646002410687529314616A537
:103A900011D0AFF30080002803DAC0F1000013A5B5
:103AA00007E031688A0701D511A502E0490704D56E
:103AB00010A5012401E0AFF3008000210A2306F1E4
:103AC000240707E0B0FBF3F203FB12003030785418
:103AD0001046491C0028F5D123462A463046BDE849
:103AE000F04100F06DB90000000000002D00000062
:103AF0002B0000002000000070B504460D46214652
:103B00001068AFF300802188090502D5104A7A4475
:103B100002E00F4A7A440E32002104F1240307E048
:103B200000F00F064FEA1010965D5E5401F101019E
:103B30000028F5D103462078000704D5702D02D067
:103B400009B1113202232046BDE8704000F038B9B7
:103B50001E1A00002DE9F05F894604464FF0000A66
:103B6000DFF828B1FB44C0F820A02046E168884770
:103B700000287CD0252806D0D4E901219047206A6E
:103B8000401C2062F1E700255F462046E168884737
:103B90002028064608DB312E06D207EB060010F877
:103BA000200C08B10543F0E7A80701D525F004056E
:103BB000C4F81CA00027C4F818A02A2E09D030464B
:103BC00001F028F938B304EB8708303EC8F81860D4
:103BD00019E059F8041B204604EB87029161E16863
:103BE0008847012F064618D1E069002820DA25F021
:103BF00020051DE0D8F8180000EB800006EB40001F
:103C00003038C8F818002046E1688847064601F0B9
:103C100001F90028EED1012F0AD02E2E08D120461E
:103C2000E16888477F1C0646022F45F02005C4DB6B
:103C3000A069002803DA404245F00105A061E807C9
:103C400001D025F0100596B1A6F14100192802D83F
:103C5000203645F400654A463146204625604D46EB
:103C6000FCF77EFA60B1012807D0ED1D00E009E005
:103C700025F0070000F1080977E705F1040974E76A
:103C8000304679E7206ABDE8F09F0000F019000097
:103C900070B5064600F090F80468054630460A22E2
:103CA000002100F016FB2C6070BD40EA01030246C3
:103CB00030B59B0710D14FF0013400E008C208C9AD
:103CC0001D1B9D4315EAC41FF8D013F0FF0102F835
:103CD000011B0DD01B0AF8E711F8013B002B02F87D
:103CE000013B05D011F8013B002B02F8013BF3D159
:103CF00030BD10B5431C02E010F8011B71B1810703
:103D0000FAD14FF0013202C88C1A8C4314EAC21166
:103D1000F9D0C01A0A0603D0C01E10BDC01A10BDCB
:103D20000A0401D0801E10BD0902FCD0401E10BD47
:103D30004FF0013C50F8042B51F8043B9A4221D13A
:103D4000A2EB0C03934313EACC1317D150F8042BC6
:103D500051F8043B9A4215D1A2EB0C03934313EAAA
:103D6000CC130BD150F8042B51F8043B9A4209D1E3
:103D7000A2EB0C03934313EACC13DBD04FF000000B
:103D8000704700BFD01A01BAB1FA81F101F01801F1
:103D900022FA01F0CB40C1F12001DBB2C0B2C01A5F
:103DA0002CFA01F3D11A914311EAC311E6D17047FD
:103DB000704770477047000000487047AC01002012
:103DC0002DE9F0470D4699469246044600F1240835
:103DD0000168880604D5E06921F01001216000E047
:103DE0000120A84202DDA0EB050700E00027A16941
:103DF00007EB050202EB0900A1EB0000A0612078AF
:103E0000C00602D42046FFF711FE002608E0D4E9E0
:103E100001211AF806009047206A401C761C206297
:103E20004E45F4DB2078C0060AD52046FFF7FEFD9C
:103E300006E0D4E9012130209047206A401C20622E
:103E4000381EA7F10107F4DC07E0D4E9012118F8D6
:103E500005009047206A401C2062281EA5F101053C
:103E6000F3DC2046FFF7F9FD2078000602D502209A
:103E7000BDE8F0870120FBE770472DE9FF4F0C46B6
:103E80001E464FF0FF378BB0D2E90001DDF86080AD
:103E90000A908A46C1F30A5505B93D4600210846F5
:103EA0004FF00000BAF1000F00F4400005DA00EB1B
:103EB00080004FF4400101EA50004FEA9059B9F1F7
:103EC000010F00DDB9460A9850EA4A000ED044F6C8
:103ED0001050A5F2FF3545432F14B8F1000F1ED046
:103EE0007542291E1EDDC9F100021CE0B8F1010F68
:103EF0004FF0000001D0302103E0F24305E02154EF
:103F0000401CB042FBDB30460022002121540B99BB
:103F1000C1F80880C1E900200FB0BDE8F08FBD1BDB
:103F20006D1CDEE74A4600DA694206A800F0F0FAA6
:103F300006AB07CB03AB07C350460A9900F09BFBC7
:103F40008DE80700A0F500501F3800900398002D61
:103F500009DD42F21F014A46084403A9039068465E
:103F600000F0FAFD08E0A0F500504A461F3803A90A
:103F70000390684600F004FE8DE807000004000C82
:103F800003D04FF0FF30410800E01046B8F1000FB9
:103F900003D00022009215461FE0751E06D400F0E3
:103FA000E1F902F1300262556D1EF8D5B3460122E7
:103FB000084302D000227F1C04E02078302801D181
:103FC00000227F1E002A099787D01DE0112D07DAF5
:103FD00000F0C8F9303262556D1C50EA0102F5D18B
:103FE00008430FD10021681E05E0235C625C635426
:103FF000491C2254401E8142F7DBAB46A81B401EE1
:10400000099001E0009848B1002004F80B000B98DB
:10401000099AC0F80880C0E9002B7DE711264FF00F
:1040200000085AE72DE9F04F88460446D21D22F0D9
:10403000070191B0D1E90001CDE90A0100F0D6FEF7
:1040400002460B98C00F01D02D2007E020688107A1
:1040500001D52B2002E0202101EAC000032A0990AB
:1040600001D0072A05DB03464146204600F0C0F98F
:104070000FE12078800601D5E06900E00620B8F164
:10408000650F814606D0B8F1660F18D0B8F1670FFA
:1040900072D132E00020B9F1110F009001DB112341
:1040A00001E009F101030AAA01A90CA8FFF7E5FE46
:1040B000DDE90C70002609F10105834648E0012086
:1040C0004B4600904FF000470AAA01A90CA8FFF741
:1040D000D4FEDDE90DB00C995D46002618B909F152
:1040E000010001EB0005B9EB050003D4C0F1FF3678
:1040F00009F10105A5EB09002BE0B9F1010F01DA87
:104100004FF001090020B9F1110F0090484601DD80
:10411000112300E003460AAA01A90CA8FFF7ADFE8F
:10412000DDE90C704D4600268346207800070AD44E
:10413000AB4500DA5D4601A8012D04DD411911F8F7
:10414000011C302907D04F4502DA17F1040F04DAB9
:104150000120824610E06D1EEEE7002F02DCED1B11
:104160003E4403E0781CA84200DD0546A7EB0600AC
:1041700000F1010A4FF000472078000703D4AA4558
:1041800001DB4FF0FF3A0021B7F1004F0DF143087A
:104190008DF8431023D002202B23002F01DA7F4219
:1041A0002D234FF00A0C011EA0F1010000DC4FB1DD
:1041B00097FBFCF10CFB11720F4602F1300208F87C
:1041C000012DF0E7A8F1010003702188090501D550
:1041D000452100E06521A0F1010800F8011C0998C3
:1041E0000FA9A1EB080707F1070700B1012000EBB9
:1041F000050101EBEA70A1693844A1EB0000A0F1D0
:104200000100A0612078C00602D42046FFF70EFC12
:10421000099830B1D4E901219047206A00F10100EA
:1042200020622078C00620D52046FFF7FFFB1CE067
:10423000002E04DBB34502DD01A8805D00E03020E4
:10424000D4E901219047206A761C401CBAF1010A8A
:1042500020620AD100F082F8C0680168405CD4E9AD
:1042600001219047206A401C2062281EA5F101050B
:10427000DEDC07E0D4E9012118F8010B9047206A41
:10428000401C2062381EA7F10107F3DC2046FFF72F
:10429000E4FB022011B040E601694A1C0261087883
:1042A000704700B58FB0CDE9013100210591054976
:1042B0007944CDE9031011466846FFF74BFC0FB077
:1042C00000BD0000E5FFFFFF0A6802F8010B0A606D
:1042D00070472DE9F04791460F4680460446002678
:1042E00014F8015B2DB100F031F80068405DC007A3
:1042F000F6D12B2D02D02D2D18D0641E4A463946FA
:10430000204600F0B5F827B13968A14201D1C7F8BD
:1043100000804FF0020471050BD54042002803DDF8
:10432000FFF74AFD0460A007BDE8F08746F4806609
:10433000E4E70028F8DAFFF73FFD04606FF0004083
:10434000F2E7000000487047AC01002010B500F013
:1043500005F8001D10BD00BFF90A000000487047B5
:10436000CC01002030B5B0F10A024FEA900E71F195
:1043700000034EEA817EB0EB0E0061EB91014FEA43
:10438000101E4EEA017E10EB0E0041EB11114FEAB8
:10439000102E4EEA016E10EB0E0041EB11214FEA98
:1043A000104E4EEA014E10EB0E0041EB1141401849
:1043B00041F100014FEAD00040EA41704FEAD101DB
:1043C00010EB80054FEA810444EA907444EB010449
:1043D0006D1944EB0404521BA3414FF0000348BF86
:1043E0000A3200D530BD401C41F1000130BD000053
:1043F0002DE9F0411F46044603260168072A01F40F
:10440000006004DB08B116A505E016A503E008B1BD
:1044100015A500E015A521F010002060A069C01EC0
:10442000A0610FB1401EA0612046FFF7FFFA4FB117
:10443000D4E9012138469047206A401C2062C01C04
:10444000206206E0206AFAE7D4E9012115F8010BA1
:104450009047761EF8D22046FFF7FFFABDE8F081BC
:104460004E414E006E616E00494E4600696E660018
:104470002DE9F05F824615468B4600270AF10104BC
:10448000B9460078302801D09DB113E014F8010B33
:104490000127782803D0582801D045B10AE00DB192
:1044A000102D07D1002714F8010B102502E0082574
:1044B00000E00A250026B0460EE005FB080005FBDB
:1044C00006F101271FFA80F801EB1046B6F5803F90
:1044D00000D3B94614F8010B294600F0B0F80028C3
:1044E000EBDABBF1000F05D00FB1641E00E05446BB
:1044F000CBF80040B9F1000F06D0FFF75DFC0221B8
:104500000160C81EBDE8F09F48EA0640FAE70000D7
:104510002DE9F047814616468AB035487844D0E9FF
:10452000002380680092CDE90130314878440C388E
:10453000D0E90223006903924FF03702CDE904303D
:1045400041F69B30014491FBF2F0A0F1800502FBA3
:1045500010141B3C02D56442012000E00020DFF86B
:1045600090A080460027FA44AAF1C60A0DE0E007B1
:1045700009D03246684607EB47010AEB810100F09B
:10458000FFFA8DE8070064107F1C002CEFD1184F54
:104590007F44B43F17E0E80713D007EB04100DF198
:1045A000180A90E80E00AAE80E00C068F04201D197
:1045B00098190890324606A903A800F0E1FA03AB67
:1045C00007C36D10641C002DE5D132466946B8F171
:1045D000000F03A802D000F0BFFA01E000F0D0FA0B
:1045E000C9E90001C9F808200AB0BDE8F087000059
:1045F000C81000007546FFF7A5FEAE4605006946E7
:10460000534620F00700854618B020B5FBF7E6FDBD
:10461000BDE820404FF000064FF000074FF00008C3
:104620004FF0000B21F00701AC46ACE8C009ACE844
:10463000C009ACE8C009ACE8C0098D4670473A280B
:1046400000D2303820F02002412A01D3A2F13700F5
:10465000884201D34FF0FF3070470446AFF300802B
:104660002046FBF7A6FD000001491820ABBEFEE77F
:104670002600020070475FEA400C08BF91F0000F6F
:104680004FEA8C234FEAC12243EA51514FEA1C50B2
:1046900018BF00F5F0404FEA300018BF41F000416C
:1046A0005FEA6C5C00F02980BCF1FF3F08BF40F07E
:1046B00080407047130C06BF12044FF0100C4FF0EF
:1046C000000C130E04BF12020CF1080C130F04BFF0
:1046D00012010CF1040C930F04BF92000CF1020CB8
:1046E000D30F04BF52000CF1010C11464FF0000231
:1046F000A0F11F00A0EB0C00704711F0004F08BFA5
:10470000704731F000413FF4D5AF0B0C06BF0904F0
:104710004FF0100C4FF0000C0B0E04BF09020CF10F
:10472000080C0B0F04BF09010CF1040C8B0F04BF24
:1047300089000CF1020CCB0F04BF49000CF1010CF5
:10474000CCF12003A0EB0C0022FA03F302FA0CF2E6
:1047500041EA030100F10100704720F07F4C80EA3C
:10476000030023F07F47ACEB070303F57C5300F015
:10477000004003F1FF032DE980494FEA154B09B4CE
:104780004FEA144325EA0B4E24EA03480FF20426AD
:1047900006EB132749083E785FEA320203FB0667FF
:1047A000C7F5000707FB06F64FEA54374FEAD6462F
:1047B00006F1020607FB066CCCF1005C4FEA1C47D1
:1047C0002CEA074C07FB06F40CFB06F504EB154638
:1047D0004FEA961634BF00204FF000404FEAD13721
:1047E00006FB07FC4FEA1C4C0CFB0BF7D21B03FB30
:1047F0000CF761EB07010CFB0EF7B0EB074072EB17
:1048000017420CFB08F734BFA2EB0742B2EB07429A
:1048100061EB17414FEA0C444FEA910706FB07FC96
:104820004FEA1C4C0CFB0BF7B0EBC74072EB573256
:1048300003FB0CF734BFA2EBC742B2EBC74261EBFC
:1048400057310CFB0EF7B0EBC70072EB57720CFB45
:1048500008F734BFA2EBC702B2EBC70261EB577196
:10486000039F4FEA816141EA921104EBCC044FEAC5
:10487000D1374FEA826206FB07FC42EA90124FEA08
:1048800080604FEA1C4C0CFB0BF7D21B03FB0CF7B0
:1048900061EB07010CFB0EF7B0EB074072EB174220
:1048A0000CFB08F734BFA2EB0742B2EB074261EB07
:1048B00017414FEA8C554FEA910704EB9C2406FB05
:1048C00007FC4FEA1C4C0CFB0BF7B0EBC74072EB3C
:1048D000573203FB0CF734BFA2EBC742B2EBC7421F
:1048E00061EB57310CFB0EF7B0EBC70072EB577260
:1048F0000CFB08F734BFA2EBC702B2EBC70261EBB7
:10490000577115EB4C254FEA816141EA92114FEA4C
:1049100082624FEAD13742EA901206FB07FC44F16B
:1049200000044FEA80604FEA1C4C0CFB0BF7D21BD3
:1049300003FB0CF761EB07010CFB0EF7B0EB074034
:1049400072EB17420CFB08F734BFA2EB0742B2EB45
:10495000074261EB174115EB1C154FEA813141EA23
:1049600092414FEA823242EA90424FEA80304FEA67
:104970000C7644F1000448EA03434EEA0B484FF03A
:10498000000EB2EB080C71EB030724BF62463946F8
:104990004EEB0E0E4FF0000B0018524149414BEB0D
:1049A0000B0BB2EB080C71EB03077BF1000B24BF80
:1049B000624639464EEB0E0E4FF0000B0018524186
:1049C00049414BEB0B0BB2EB080C71EB03077BF18E
:1049D000000B24BF624639464EEB0E0E51EA020729
:1049E00018BF46F0010616EB0E7655F1000254F1A1
:1049F000000103D5BDE88901BDE80088BDE8890153
:104A0000BDE80048B619524141EB0101A3F1010391
:104A1000704780807F7E7D7C7B7A7978777676752B
:104A20007473727171706F6E6E6D6C6C6B6A6A69A3
:104A30006868676666656464636362616160605F3D
:104A40005F5E5E5D5D5C5C5B5B5A5A5959585857B6
:104A5000575656555555545453535252525151501E
:104A600050504F4F4F4E4E4D4D4D4C4C4C4B4B4B71
:104A70004A4A4A49494948484847474747464646B7
:104A800045454544444444434343434242424241F2
:104A90004141002B26D4770021D01CB54FEA3707BF
:104AA00003B44FF010004FF010014FF000000FBCA6
:104AB000BDE810400BF1010BBBF1010F08BF5FEA2D
:104AC000170722BF12F1010211F101014FF000415D
:104AD00043F1000300F0004043EA00007047F9D3BF
:104AE0005708DAE746EA064613F1400F4FEA164642
:104AF0001FDD13F1200FDFBF16430A4600212033CC
:104B00005B42C8D0C3F1200746EA064602FA07F71F
:104B10004FEA164646EA0706C3F1200722FA03F2D7
:104B200001FA07F721FA03F14FF0000342EA070206
:104B3000B1E746EA020646EA06464FEA164646EA64
:104B40000106BCBF46EA0646360C4FF000034FF0A4
:104B500000024FF000019EE72DE9C048934630B4B3
:104B600091E8380007C831EA400C48BF34EA430CEA
:104B700003D5FFF7F2FDFFF78CFFF0BCBDE800881E
:104B80002DE9C048934630B491E8380007C810F0CA
:104B9000804F08BF13F0804F03D100F005F8FFF7F6
:104BA00078FFF0BCBDE8008820F07F4780EA030072
:104BB00023F07F4C07EB0C03A3F57C5300F000407F
:104BC000A3F1FE0392F0000F00F0B38095F0000F08
:104BD00000F077802DE901494FEA11404FEA144671
:104BE00021EA004800FB06FC24EA064708FB06F61B
:104BF00007FB08F800FB07F718EB06484CEB164CD0
:104C00004FEA124B18EB07484FEA15464CEB17409A
:104C100022EA0B4E0BFB06FC25EA06470EFB06F6C6
:104C200007FB0EFE0BFB07F71EEB064E4CEB164C7C
:104C30004FF000061EEB074E4CEB174B18EB0B0822
:104C400040F1000018EB0E0B58EB000840F100009B
:104C50008F1A4FF000013CBFC943661B14BFB5EB70
:104C6000040C00213CBFC943F61B4FEA17444EEA2F
:104C70008E0E27EA04454FEA1C4704FB07622CEA24
:104C8000074C05FB07F70CFB05F604FB0CFC16EBC9
:104C9000074642EB174216EB0C4642EB1C421BEB5D
:104CA000060658EB0202414146EA9E0601D5BDE8E0
:104CB0000189B619524141EB0101A3F10103BDE89D
:104CC00001894FEA14454FEA114724EA054621EAD3
:104CD000074C05FB07F406FB07F70CFB06F105FB89
:104CE0000CFC11EB074144EB17444FEA124711EB60
:104CF0000C4144EB1C4422EA074C05FB07F206FB7F
:104D000007F70CFB06F605FB0CFC16EB074642EB1F
:104D1000174216EB0C4642EB1C456A1854F1000191
:104D200048BF7047B619524141EB0101A3F101039D
:104D3000704795F0000F37D04FEA11424FEA144701
:104D400021EA024624EA074C02FB07F106FB07F7BB
:104D50000CFB06F402FB0CFC14EB074441EB17417F
:104D60004FEA154714EB0C4441EB1C4125EA074C74
:104D700002FB07F506FB07F70CFB06F602FB0CFC33
:104D800016EB074645EB174516EB0C4645EB1C4268
:104D9000121951F1000148BF7047B619524141EB59
:104DA0000101A3F1010370474FEA14454FEA11478F
:104DB00024EA054621EA074C05FB07F106FB07F745
:104DC0000CFB06F24FF0000605FB0CFC12EB074251
:104DD00041EB174112EB0C4251EB1C4148BF7047AD
:104DE000921841EB0101A3F101037047490050EA19
:104DF000C12018BF04204A0D18BF40F0010040F246
:104E0000FF72B2EB515F08BF40F00200012808BFFB
:104E10000520704730380A2801D201207047002051
:104E20007047000010B500290AD00878002807D084
:104E300005487844FEF77CFF002801D0002010BD13
:104E40000248784410BD0000EE070000E6070000AD
:104E500010B500290AD00878002807D00548784402
:104E6000FEF766FF002801D0002010BD02487844FC
:104E700010BD0000DE070000D607000021F0004250
:104E8000A2F16052B2F5801F01F0004328BFD2F1B9
:104E90007F6C0BD95FEA001C43EAC20242EB507000
:104EA00018BF704728BF20F001007047B2F5801F7F
:104EB000BCBF184670474FEA410C1CF5001F02D2D8
:104EC000084600F02EBB70B500F076FA00000089AD
:104ED000FFF7F6BF4FF00040A0F5800070470000DC
:104EE0002DE9C04130B4DFF8A0C23CEA111418BF6C
:104EF0003CEA131400F0EC8081EA03051CEA11146B
:104F000044EAD57418BF1CEA131500F0C780A4EB5F
:104F100005044FF0004545EAC12145EAC32341EAB3
:104F2000505143EA525304F17F74994204F500341E
:104F30004FEAC0204FEAC22208BF904200F09C8096
:104F40004FEA13650FF24016765D4FEA134506FBF4
:104F500005F7C7F1807706FB07F74FEAD737A7FBBE
:104F600003687642C8F58038A7FB06CE38BFA8F1A3
:104F7000010807FB08E64FF0000EA6FB028CE6FBDB
:104F800003CEDCF1000CCEF1004E38BFAEF1010EC5
:104F9000A6FB0C584FF000074FF00005E6FB0E870C
:104FA000A1FB08C6A0FB07CE16EB0E0645F10005D7
:104FB000E1FB076515F1E04E7EBFA4F580345FEAA2
:104FC00046066D4116F1800745F100054FEA1727A7
:104FD0004FEA066647EA0567A6F1DE46B6F1805F4E
:104FE0004FEA15251FD9384624F0010C05EBC47192
:104FF000BCF1FE6F01EB0C1102D8F0BCBDE80081E2
:1050000024425CBF01F5801E9EEAC47F02D4F0BC3E
:10501000BDE80081244238D4F0BCA1F1C041BDE814
:10502000004100F017BA4FEAD22242EA43524FEA57
:10503000D323A7FB02864FEAD02040EA415007FB6A
:1050400003661EEA0E0F4FEAD12105FB026658BF28
:10505000A6EB0056B6EB00564FEA520E4EEAC37E60
:1050600018EB0E0E56EB530EBDD518EB02085E4141
:105070007F1C55F10005B6E74FF480154FF000078F
:105080004FF000064FF00008ADE7F0BC4FF0000015
:1050900001F1C04101F00041BDE8008111EA0C1F9F
:1050A0000CEA131500D00CE013EA0C1F00F0258069
:1050B0004FF00000F0BC81EA030101F00041BDE8BF
:1050C0000081F0BCBDE8004181EA030100F0C2B9F3
:1050D000F0BCBDE8004170B500F06EF9097EFC3E01
:1050E00000F007B881EA03014FF0000001F0004131
:1050F000704781EA030100F0ADB9F0BCBDE80041A2
:105100004FF0000021497047FFFDFBF9F7F5F4F27D
:10511000F0EEEDEBE9E8E6E4E3E1E0DEDDDBDAD852
:10512000D7D5D4D3D1D0CFCDCCCBCAC8C7C6C5C4B0
:10513000C2C1C0BFBEBDBCBBBAB9B8B7B6B5B4B3C7
:10514000B2B1B0AFAEADACABAAA9A8A8A7A6A5A4B2
:10515000A3A3A2A1A09F9F9E9D9C9C9B9A99999876
:105160009797969595949393929191908F8F8E8E19
:105170008D8C8C8B8B8A89898888878786858584A6
:1051800084838382828181800000FF070000F87F92
:1051900010F0004248BF4042B0FA80F310FA03F129
:1051A0000AD0C3F11D0303F580634FEA415002EBBF
:1051B000035202EBD12170474FF00000704700000E
:1051C0007FEAE17202D1101A62EB0101B1FA81F3B8
:1051D0000B3B24D3994012D1B0FA80F310FA03F1BB
:1051E00008BF7047C3F11D0303F5406303EBC223FF
:1051F0004FEAD1224FEA415002EB03517047C3F10D
:10520000200C20FA0CFC9840C3F1320303F54063F4
:1052100003EBC22341EA0C0101EB0351704710B5C7
:10522000C3F1320CC3F10004C4F1200E0CF5406C44
:105230000CEBC22201FA0EFC21FA04F100FA0EF383
:10524000E040BDE8104040EA0C0001EB025138BFDD
:105250007047401C41F100015B0008BF20F00100D5
:1052600070470000DFF848C170B51CEA111E1EBF70
:105270001CEA13159EEA0C0F95EA0C0F00F06F80E4
:1052800081EA030423EA4C134EEAD47E21EA4C114E
:1052900041F4801143F48013AE44A1FB024CA0FB07
:1052A0000365AEF17F7E361955EB0C05A1FB034C6F
:1052B0004CF10003A0FB021C16EB0C06654153F1F8
:1052C0000003094218BF46F0010613F4007F0BD11A
:1052D0004FEA03314FEA0530340341EA155140EA01
:1052E00016506FF003020AE04FEAC3214FEAC520CF
:1052F000F40241EA555140EA56506FF0020202EBC7
:105300002E4201EB025585EACE710AD05FEA440CC9
:1053100018BF24F0004450F1000041F1000120EAE0
:10532000D47040F2FE7C624500D270BDA84214BF2A
:105330004FF080444FF04044002E08BF0024BEF1DF
:10534000806FA8BFA1F1C041BDE8704080F28280AB
:105350004FF0000001F1C04101F0004170479EEAAA
:105360000C0F0CEA131518BF95EA0C0F06D04FF07E
:10537000000081EA030E0EF0004170BD00F01CF841
:105380008900013E00F007B800F009B84FEA430C6D
:105390005FEA5C5C08D081EA030100F05BB84FEA89
:1053A000410C5FEA5C5CF6D14FF0000001497047A8
:1053B0000000FF070000F87F0EF1020E2EF0030E32
:1053C0005EF8046B364205D4012A43EB030515F55C
:1053D000001F12D8012841EB010C1CF5001F0CD84E
:1053E0000ED14FEAD17C15F5001F0CEB4C0C0CF1E3
:1053F000020C08BF4CEBD37C04E04FF0080C01E03A
:105400004FEAD37C0CEB4C0526FA05F606F00706AE
:10541000B6F1040C06D20EEB860CBDE870404CF0E1
:10542000010C6047DFE80CF0090B02024FF000416D
:105430004FF00000A1F5002170BD1946104601286B
:1054400051EB010418BFD4F5001484BF002001F013
:10545000004170BD0808A0F500114FEA3101704706
:1054600041000B0ED3F19E0208D950F400034FEA1D
:10547000032323FA02F048BF4042704710B500F002
:105480000AF800BF49922480002070476FF0004264
:1054900082EA200070470EF1020E2EF0030E5EF835
:1054A000044B244204D44FEA4102B2F17F4F11D899
:1054B0004FEA4003B3F17F4F0CD80ED14FEAD07CB6
:1054C000B2F17F4F0CEB4C0C0CF1020C08BF4CEB13
:1054D000D17C04E04FF0080C01E04FEAD17C0CEBEA
:1054E0004C0324FA03F404F00704B4F1040C06D2CC
:1054F0000EEB840CBDE810404CF0010C6047DFE877
:105500000CF0070802024FF00040A0F5800010BD2B
:105510000846420018BFD2F1807288BF00F00040F8
:1055200010BDFF2141EAD050C0057047FEF77ABD9B
:1055300030313233343536373839414243444546C9
:1055400040305800303132333435363738396162C3
:1055500063646566403078000400000800000000C5
:1055600000000002000100001000000002400000E6
:10557000000000A00000000005400000000000C87E
:10558000000000000C4000000000409C00000000F3
:10559000194000000020BCBE0000000034400000A4
:1055A000BFC91B8E00000004B5400000504BCFD097
:1055B0006607E2CF010000006C4100003E8251AA64
:1055C000DFEEA73401000000D9420000DCB5A0E204
:1055D0003A301F97FFFFFFFFB4450000FD25A0C82C
:1055E000E9A3C14FFFFFFFFFFF3F00000000008065
:1055F00000000000FF3F00000000008000000000ED
:105600004C57000800000020B400000028010008EA
:1056100000580008B40000205C07000044010008A6
:105620001C00000043000000F8FFFFFF0C0000001A
:105630000E0000000F0000002E000000100100000E
:1056400043000000F8FFFFFF004040404040404062
:105650004040414141414140404040404040404045
:1056600040404040404040404005020202020202E9
:105670000202020202020202022020202020202038
:10568000202020020202020202029090909090904C
:10569000101010101010101010101010101010100A
:1056A000101010100202020202028888888888887E
:1056B000080808080808080808080808080808086A
:1056C0000808080802020202400000000000000072
:1056D00000000000000000000000000000000000CA
:1056E00000000000000000000000000000000000BA
:1056F00000000000000000000000000000000000AA
:105700000000000000000000000000000000000099
:105710000000000000000000000000000000000089
:105720000000000000000000000000000000000079
:105730000000000000000000000000000000000069
:1057400000000000000000000000000000366E01B4
:105750000000000000000000010203040607080921
:105760000000000001020304010203040607080907
:10577000020406080008014004000000000801407F
:10578000080000000008014010000000000801406F
:105790002000000000080140400000000008014017
:1057A00080000000000C014001000000000C0140DE
:1057B000020000000008014002000000000000009C
:1057C00000000000000000000000000000000000D9
:1057D00000000000000000000000000000000000C9
:1057E00000000000000000000000000000000000B9
:1057F00000000000000000000000000000000000A9
:04000005080000ED02
:00000001FF
